{
  "contractName": "ERC721TOKEN",
  "abi": [
    {
      "inputs": [
        {
          "internalType": "string",
          "name": "name_",
          "type": "string"
        },
        {
          "internalType": "string",
          "name": "symbol_",
          "type": "string"
        }
      ],
      "stateMutability": "nonpayable",
      "type": "constructor"
    },
    {
      "anonymous": false,
      "inputs": [
        {
          "indexed": true,
          "internalType": "address",
          "name": "owner",
          "type": "address"
        },
        {
          "indexed": true,
          "internalType": "address",
          "name": "approved",
          "type": "address"
        },
        {
          "indexed": true,
          "internalType": "uint256",
          "name": "tokenId",
          "type": "uint256"
        }
      ],
      "name": "Approval",
      "type": "event"
    },
    {
      "anonymous": false,
      "inputs": [
        {
          "indexed": true,
          "internalType": "address",
          "name": "owner",
          "type": "address"
        },
        {
          "indexed": true,
          "internalType": "address",
          "name": "operator",
          "type": "address"
        },
        {
          "indexed": false,
          "internalType": "bool",
          "name": "approved",
          "type": "bool"
        }
      ],
      "name": "ApprovalForAll",
      "type": "event"
    },
    {
      "anonymous": false,
      "inputs": [
        {
          "indexed": false,
          "internalType": "address",
          "name": "account",
          "type": "address"
        },
        {
          "indexed": false,
          "internalType": "bool",
          "name": "status",
          "type": "bool"
        }
      ],
      "name": "Paused",
      "type": "event"
    },
    {
      "anonymous": false,
      "inputs": [
        {
          "indexed": true,
          "internalType": "bytes32",
          "name": "role",
          "type": "bytes32"
        },
        {
          "indexed": true,
          "internalType": "bytes32",
          "name": "previousAdminRole",
          "type": "bytes32"
        },
        {
          "indexed": true,
          "internalType": "bytes32",
          "name": "newAdminRole",
          "type": "bytes32"
        }
      ],
      "name": "RoleAdminChanged",
      "type": "event"
    },
    {
      "anonymous": false,
      "inputs": [
        {
          "indexed": true,
          "internalType": "bytes32",
          "name": "role",
          "type": "bytes32"
        },
        {
          "indexed": true,
          "internalType": "address",
          "name": "account",
          "type": "address"
        },
        {
          "indexed": true,
          "internalType": "address",
          "name": "sender",
          "type": "address"
        }
      ],
      "name": "RoleGranted",
      "type": "event"
    },
    {
      "anonymous": false,
      "inputs": [
        {
          "indexed": true,
          "internalType": "bytes32",
          "name": "role",
          "type": "bytes32"
        },
        {
          "indexed": true,
          "internalType": "address",
          "name": "account",
          "type": "address"
        },
        {
          "indexed": true,
          "internalType": "address",
          "name": "sender",
          "type": "address"
        }
      ],
      "name": "RoleRevoked",
      "type": "event"
    },
    {
      "anonymous": false,
      "inputs": [
        {
          "indexed": true,
          "internalType": "address",
          "name": "from",
          "type": "address"
        },
        {
          "indexed": true,
          "internalType": "address",
          "name": "to",
          "type": "address"
        },
        {
          "indexed": true,
          "internalType": "uint256",
          "name": "tokenId",
          "type": "uint256"
        }
      ],
      "name": "Transfer",
      "type": "event"
    },
    {
      "stateMutability": "payable",
      "type": "fallback",
      "payable": true
    },
    {
      "inputs": [
        {
          "internalType": "address",
          "name": "to",
          "type": "address"
        },
        {
          "internalType": "uint256",
          "name": "tokenId",
          "type": "uint256"
        }
      ],
      "name": "approve",
      "outputs": [],
      "stateMutability": "nonpayable",
      "type": "function"
    },
    {
      "inputs": [
        {
          "internalType": "address",
          "name": "owner",
          "type": "address"
        }
      ],
      "name": "balanceOf",
      "outputs": [
        {
          "internalType": "uint256",
          "name": "",
          "type": "uint256"
        }
      ],
      "stateMutability": "view",
      "type": "function",
      "constant": true
    },
    {
      "inputs": [
        {
          "internalType": "uint256",
          "name": "tokenId",
          "type": "uint256"
        }
      ],
      "name": "burn",
      "outputs": [],
      "stateMutability": "nonpayable",
      "type": "function"
    },
    {
      "inputs": [
        {
          "internalType": "uint256",
          "name": "tokenId",
          "type": "uint256"
        }
      ],
      "name": "getApproved",
      "outputs": [
        {
          "internalType": "address",
          "name": "",
          "type": "address"
        }
      ],
      "stateMutability": "view",
      "type": "function",
      "constant": true
    },
    {
      "inputs": [
        {
          "internalType": "bytes32",
          "name": "role",
          "type": "bytes32"
        }
      ],
      "name": "getRoleAdmin",
      "outputs": [
        {
          "internalType": "bytes32",
          "name": "",
          "type": "bytes32"
        }
      ],
      "stateMutability": "view",
      "type": "function",
      "constant": true
    },
    {
      "inputs": [
        {
          "internalType": "bytes32",
          "name": "role",
          "type": "bytes32"
        },
        {
          "internalType": "uint256",
          "name": "index",
          "type": "uint256"
        }
      ],
      "name": "getRoleMember",
      "outputs": [
        {
          "internalType": "address",
          "name": "",
          "type": "address"
        }
      ],
      "stateMutability": "view",
      "type": "function",
      "constant": true
    },
    {
      "inputs": [
        {
          "internalType": "bytes32",
          "name": "role",
          "type": "bytes32"
        }
      ],
      "name": "getRoleMemberCount",
      "outputs": [
        {
          "internalType": "uint256",
          "name": "",
          "type": "uint256"
        }
      ],
      "stateMutability": "view",
      "type": "function",
      "constant": true
    },
    {
      "inputs": [
        {
          "internalType": "bytes32",
          "name": "role",
          "type": "bytes32"
        },
        {
          "internalType": "address",
          "name": "account",
          "type": "address"
        }
      ],
      "name": "grantRole",
      "outputs": [],
      "stateMutability": "nonpayable",
      "type": "function"
    },
    {
      "inputs": [
        {
          "internalType": "bytes32",
          "name": "role",
          "type": "bytes32"
        },
        {
          "internalType": "address",
          "name": "account",
          "type": "address"
        }
      ],
      "name": "hasRole",
      "outputs": [
        {
          "internalType": "bool",
          "name": "",
          "type": "bool"
        }
      ],
      "stateMutability": "view",
      "type": "function",
      "constant": true
    },
    {
      "inputs": [
        {
          "internalType": "address",
          "name": "owner",
          "type": "address"
        },
        {
          "internalType": "address",
          "name": "operator",
          "type": "address"
        }
      ],
      "name": "isApprovedForAll",
      "outputs": [
        {
          "internalType": "bool",
          "name": "",
          "type": "bool"
        }
      ],
      "stateMutability": "view",
      "type": "function",
      "constant": true
    },
    {
      "inputs": [],
      "name": "isPaused",
      "outputs": [
        {
          "internalType": "bool",
          "name": "",
          "type": "bool"
        }
      ],
      "stateMutability": "view",
      "type": "function",
      "constant": true
    },
    {
      "inputs": [],
      "name": "name",
      "outputs": [
        {
          "internalType": "string",
          "name": "",
          "type": "string"
        }
      ],
      "stateMutability": "view",
      "type": "function",
      "constant": true
    },
    {
      "inputs": [
        {
          "internalType": "uint256",
          "name": "tokenId",
          "type": "uint256"
        }
      ],
      "name": "ownerOf",
      "outputs": [
        {
          "internalType": "address",
          "name": "",
          "type": "address"
        }
      ],
      "stateMutability": "view",
      "type": "function",
      "constant": true
    },
    {
      "inputs": [
        {
          "internalType": "bytes32",
          "name": "role",
          "type": "bytes32"
        },
        {
          "internalType": "address",
          "name": "account",
          "type": "address"
        }
      ],
      "name": "renounceRole",
      "outputs": [],
      "stateMutability": "nonpayable",
      "type": "function"
    },
    {
      "inputs": [
        {
          "internalType": "bytes32",
          "name": "role",
          "type": "bytes32"
        },
        {
          "internalType": "address",
          "name": "account",
          "type": "address"
        }
      ],
      "name": "revokeRole",
      "outputs": [],
      "stateMutability": "nonpayable",
      "type": "function"
    },
    {
      "inputs": [
        {
          "internalType": "address",
          "name": "from",
          "type": "address"
        },
        {
          "internalType": "address",
          "name": "to",
          "type": "address"
        },
        {
          "internalType": "uint256",
          "name": "tokenId",
          "type": "uint256"
        }
      ],
      "name": "safeTransferFrom",
      "outputs": [],
      "stateMutability": "nonpayable",
      "type": "function"
    },
    {
      "inputs": [
        {
          "internalType": "address",
          "name": "from",
          "type": "address"
        },
        {
          "internalType": "address",
          "name": "to",
          "type": "address"
        },
        {
          "internalType": "uint256",
          "name": "tokenId",
          "type": "uint256"
        },
        {
          "internalType": "bytes",
          "name": "_data",
          "type": "bytes"
        }
      ],
      "name": "safeTransferFrom",
      "outputs": [],
      "stateMutability": "nonpayable",
      "type": "function"
    },
    {
      "inputs": [
        {
          "internalType": "address",
          "name": "operator",
          "type": "address"
        },
        {
          "internalType": "bool",
          "name": "approved",
          "type": "bool"
        }
      ],
      "name": "setApprovalForAll",
      "outputs": [],
      "stateMutability": "nonpayable",
      "type": "function"
    },
    {
      "inputs": [],
      "name": "symbol",
      "outputs": [
        {
          "internalType": "string",
          "name": "",
          "type": "string"
        }
      ],
      "stateMutability": "view",
      "type": "function",
      "constant": true
    },
    {
      "inputs": [
        {
          "internalType": "uint256",
          "name": "index",
          "type": "uint256"
        }
      ],
      "name": "tokenByIndex",
      "outputs": [
        {
          "internalType": "uint256",
          "name": "",
          "type": "uint256"
        }
      ],
      "stateMutability": "view",
      "type": "function",
      "constant": true
    },
    {
      "inputs": [
        {
          "internalType": "address",
          "name": "owner",
          "type": "address"
        },
        {
          "internalType": "uint256",
          "name": "index",
          "type": "uint256"
        }
      ],
      "name": "tokenOfOwnerByIndex",
      "outputs": [
        {
          "internalType": "uint256",
          "name": "",
          "type": "uint256"
        }
      ],
      "stateMutability": "view",
      "type": "function",
      "constant": true
    },
    {
      "inputs": [
        {
          "internalType": "uint256",
          "name": "tokenId",
          "type": "uint256"
        }
      ],
      "name": "tokenURI",
      "outputs": [
        {
          "internalType": "string",
          "name": "",
          "type": "string"
        }
      ],
      "stateMutability": "view",
      "type": "function",
      "constant": true
    },
    {
      "inputs": [],
      "name": "totalSupply",
      "outputs": [
        {
          "internalType": "uint256",
          "name": "",
          "type": "uint256"
        }
      ],
      "stateMutability": "view",
      "type": "function",
      "constant": true
    },
    {
      "inputs": [
        {
          "internalType": "address",
          "name": "from",
          "type": "address"
        },
        {
          "internalType": "address",
          "name": "to",
          "type": "address"
        },
        {
          "internalType": "uint256",
          "name": "tokenId",
          "type": "uint256"
        }
      ],
      "name": "transferFrom",
      "outputs": [],
      "stateMutability": "nonpayable",
      "type": "function"
    },
    {
      "stateMutability": "payable",
      "type": "receive",
      "payable": true
    },
    {
      "inputs": [
        {
          "internalType": "address",
          "name": "to",
          "type": "address"
        },
        {
          "internalType": "uint256",
          "name": "tokenId",
          "type": "uint256"
        }
      ],
      "name": "mint",
      "outputs": [
        {
          "internalType": "uint256",
          "name": "",
          "type": "uint256"
        }
      ],
      "stateMutability": "nonpayable",
      "type": "function"
    },
    {
      "inputs": [
        {
          "internalType": "address",
          "name": "to",
          "type": "address"
        },
        {
          "internalType": "uint256",
          "name": "tokenId",
          "type": "uint256"
        },
        {
          "internalType": "string",
          "name": "tokenURI",
          "type": "string"
        }
      ],
      "name": "mint",
      "outputs": [
        {
          "internalType": "uint256",
          "name": "",
          "type": "uint256"
        }
      ],
      "stateMutability": "nonpayable",
      "type": "function"
    },
    {
      "inputs": [
        {
          "internalType": "address",
          "name": "to",
          "type": "address"
        },
        {
          "internalType": "uint256",
          "name": "tokenId",
          "type": "uint256"
        }
      ],
      "name": "safeMint",
      "outputs": [
        {
          "internalType": "uint256",
          "name": "",
          "type": "uint256"
        }
      ],
      "stateMutability": "nonpayable",
      "type": "function"
    },
    {
      "inputs": [
        {
          "internalType": "address",
          "name": "to",
          "type": "address"
        },
        {
          "internalType": "uint256",
          "name": "tokenId",
          "type": "uint256"
        },
        {
          "internalType": "string",
          "name": "tokenURI",
          "type": "string"
        }
      ],
      "name": "safeMint",
      "outputs": [
        {
          "internalType": "uint256",
          "name": "",
          "type": "uint256"
        }
      ],
      "stateMutability": "nonpayable",
      "type": "function"
    },
    {
      "inputs": [
        {
          "internalType": "bool",
          "name": "_paused",
          "type": "bool"
        }
      ],
      "name": "setPause",
      "outputs": [],
      "stateMutability": "nonpayable",
      "type": "function"
    },
    {
      "inputs": [
        {
          "internalType": "bytes4",
          "name": "interfaceId",
          "type": "bytes4"
        }
      ],
      "name": "supportsInterface",
      "outputs": [
        {
          "internalType": "bool",
          "name": "",
          "type": "bool"
        }
      ],
      "stateMutability": "view",
      "type": "function",
      "constant": true
    },
    {
      "inputs": [
        {
          "internalType": "address payable",
          "name": "to",
          "type": "address"
        },
        {
          "internalType": "uint256",
          "name": "value",
          "type": "uint256"
        }
      ],
      "name": "withdrawETH",
      "outputs": [],
      "stateMutability": "nonpayable",
      "type": "function"
    },
    {
      "inputs": [
        {
          "internalType": "address",
          "name": "to",
          "type": "address"
        },
        {
          "internalType": "uint256",
          "name": "value",
          "type": "uint256"
        },
        {
          "internalType": "address",
          "name": "token",
          "type": "address"
        }
      ],
      "name": "withdrawERC20",
      "outputs": [],
      "stateMutability": "nonpayable",
      "type": "function"
    },
    {
      "inputs": [
        {
          "internalType": "address",
          "name": "to",
          "type": "address"
        },
        {
          "internalType": "uint256",
          "name": "tokenId",
          "type": "uint256"
        },
        {
          "internalType": "address",
          "name": "token",
          "type": "address"
        }
      ],
      "name": "withdrawERC721",
      "outputs": [],
      "stateMutability": "nonpayable",
      "type": "function"
    }
  ],
  "bytecode": "0x60806040523480156200001157600080fd5b5060405162005d6938038062005d6983398181016040528101906200003791906200060e565b8181816002908051906020019062000051929190620004ec565b5080600390805190602001906200006a929190620004ec565b5050506000600d60006101000a81548160ff021916908315150217905550620000ac6000801b620000a0620001da60201b60201c565b620001e260201b60201c565b620000ed7f51b355059847d158e68950419dbcd54fad00bdfd0634c2515a5c533288c7f0a2620000e1620001da60201b60201c565b620001e260201b60201c565b6200012e7f9f2df0fed2c77648de5860a4cc508cd0818c85b8b8a1ab4ceeef8d981c8956a662000122620001da60201b60201c565b620001e260201b60201c565b620001807f9f2df0fed2c77648de5860a4cc508cd0818c85b8b8a1ab4ceeef8d981c8956a67f51b355059847d158e68950419dbcd54fad00bdfd0634c2515a5c533288c7f0a26200022a60201b60201c565b620001d27fefe866497efea00aa7574b13e86f62ebb584dfdf8dd4654ccc38107eb91840b87f51b355059847d158e68950419dbcd54fad00bdfd0634c2515a5c533288c7f0a26200022a60201b60201c565b5050620007b2565b600033905090565b620001f982826200028760201b620018341760201c565b6200022581600160008581526020019081526020016000206200029d60201b620018421790919060201c565b505050565b806200023c83620002d560201b60201c565b837fbd79b86ffe0ab8e8776151514217cd7cacd52c909f66475c3af44e129f0b00ff60405160405180910390a480600080848152602001908152602001600020600101819055505050565b620002998282620002f460201b60201c565b5050565b6000620002cd836000018373ffffffffffffffffffffffffffffffffffffffff1660001b620003e560201b60201c565b905092915050565b6000806000838152602001908152602001600020600101549050919050565b6200030682826200045f60201b60201c565b620003e157600160008084815260200190815260200160002060000160008373ffffffffffffffffffffffffffffffffffffffff1673ffffffffffffffffffffffffffffffffffffffff16815260200190815260200160002060006101000a81548160ff02191690831515021790555062000386620001da60201b60201c565b73ffffffffffffffffffffffffffffffffffffffff168173ffffffffffffffffffffffffffffffffffffffff16837f2f8788117e7eff1d82e926ec794901d17c78024a50270940304540a733656f0d60405160405180910390a45b5050565b6000620003f98383620004c960201b60201c565b6200045457826000018290806001815401808255809150506001900390600052602060002001600090919091909150558260000180549050836001016000848152602001908152602001600020819055506001905062000459565b600090505b92915050565b600080600084815260200190815260200160002060000160008373ffffffffffffffffffffffffffffffffffffffff1673ffffffffffffffffffffffffffffffffffffffff16815260200190815260200160002060009054906101000a900460ff16905092915050565b600080836001016000848152602001908152602001600020541415905092915050565b828054620004fa906200071e565b90600052602060002090601f0160209004810192826200051e57600085556200056a565b82601f106200053957805160ff19168380011785556200056a565b828001600101855582156200056a579182015b82811115620005695782518255916020019190600101906200054c565b5b5090506200057991906200057d565b5090565b5b80821115620005985760008160009055506001016200057e565b5090565b6000620005b3620005ad84620006b5565b62000681565b905082815260208101848484011115620005cc57600080fd5b620005d9848285620006e8565b509392505050565b600082601f830112620005f357600080fd5b8151620006058482602086016200059c565b91505092915050565b600080604083850312156200062257600080fd5b600083015167ffffffffffffffff8111156200063d57600080fd5b6200064b85828601620005e1565b925050602083015167ffffffffffffffff8111156200066957600080fd5b6200067785828601620005e1565b9150509250929050565b6000604051905081810181811067ffffffffffffffff82111715620006ab57620006aa62000783565b5b8060405250919050565b600067ffffffffffffffff821115620006d357620006d262000783565b5b601f19601f8301169050602081019050919050565b60005b8381101562000708578082015181840152602081019050620006eb565b8381111562000718576000848401525b50505050565b600060028204905060018216806200073757607f821691505b602082108114156200074e576200074d62000754565b5b50919050565b7f4e487b7100000000000000000000000000000000000000000000000000000000600052602260045260246000fd5b7f4e487b7100000000000000000000000000000000000000000000000000000000600052604160045260246000fd5b6155a780620007c26000396000f3fe6080604052600436106101f25760003560e01c80636352211e1161010d578063b187bd26116100a0578063ca15c8731161006f578063ca15c8731461076f578063cd279c7c146107ac578063d3fc9864146107e9578063d547741f14610826578063e985e9c51461084f576101f9565b8063b187bd26146106b5578063b88d4fde146106e0578063bedb86fb14610709578063c87b56dd14610732576101f9565b806391d14854116100dc57806391d14854146105e757806395d89b4114610624578063a14481941461064f578063a22cb4651461068c576101f9565b80636352211e1461050757806370a08231146105445780637b9f76b5146105815780639010d07c146105aa576101f9565b80632f745c591161018557806342966c681161015457806342966c681461044f5780634782f779146104785780634f6ccce7146104a15780635fc3ea0b146104de576101f9565b80632f745c591461038357806336568abe146103c057806340c10f19146103e957806342842e0e14610426576101f9565b806318160ddd116101c157806318160ddd146102c957806323b872dd146102f4578063248a9ca31461031d5780632f2ff15d1461035a576101f9565b806301ffc9a7146101fb57806306fdde0314610238578063081812fc14610263578063095ea7b3146102a0576101f9565b366101f957005b005b34801561020757600080fd5b50610222600480360381019061021d9190613e02565b61088c565b60405161022f9190614c6f565b60405180910390f35b34801561024457600080fd5b5061024d61089e565b60405161025a9190614ca5565b60405180910390f35b34801561026f57600080fd5b5061028a60048036038101906102859190613e54565b610930565b6040516102979190614b7f565b60405180910390f35b3480156102ac57600080fd5b506102c760048036038101906102c29190613c1d565b6109b5565b005b3480156102d557600080fd5b506102de610acd565b6040516102eb91906150e7565b60405180910390f35b34801561030057600080fd5b5061031b60048036038101906103169190613b17565b610ada565b005b34801561032957600080fd5b50610344600480360381019061033f9190613d61565b610b3a565b6040516103519190614c8a565b60405180910390f35b34801561036657600080fd5b50610381600480360381019061037c9190613d8a565b610b59565b005b34801561038f57600080fd5b506103aa60048036038101906103a59190613c1d565b610b8d565b6040516103b791906150e7565b60405180910390f35b3480156103cc57600080fd5b506103e760048036038101906103e29190613d8a565b610c32565b005b3480156103f557600080fd5b50610410600480360381019061040b9190613c1d565b610c66565b60405161041d91906150e7565b60405180910390f35b34801561043257600080fd5b5061044d60048036038101906104489190613b17565b610ceb565b005b34801561045b57600080fd5b5061047660048036038101906104719190613e54565b610d0b565b005b34801561048457600080fd5b5061049f600480360381019061049a9190613a9f565b610d67565b005b3480156104ad57600080fd5b506104c860048036038101906104c39190613e54565b610dc8565b6040516104d591906150e7565b60405180910390f35b3480156104ea57600080fd5b5061050560048036038101906105009190613c59565b610e5f565b005b34801561051357600080fd5b5061052e60048036038101906105299190613e54565b610ec2565b60405161053b9190614b7f565b60405180910390f35b34801561055057600080fd5b5061056b60048036038101906105669190613a76565b610f74565b60405161057891906150e7565b60405180910390f35b34801561058d57600080fd5b506105a860048036038101906105a39190613c59565b61102c565b005b3480156105b657600080fd5b506105d160048036038101906105cc9190613dc6565b61108f565b6040516105de9190614b7f565b60405180910390f35b3480156105f357600080fd5b5061060e60048036038101906106099190613d8a565b6110be565b60405161061b9190614c6f565b60405180910390f35b34801561063057600080fd5b50610639611128565b6040516106469190614ca5565b60405180910390f35b34801561065b57600080fd5b5061067660048036038101906106719190613c1d565b6111ba565b60405161068391906150e7565b60405180910390f35b34801561069857600080fd5b506106b360048036038101906106ae9190613be1565b61123f565b005b3480156106c157600080fd5b506106ca6113c0565b6040516106d79190614c6f565b60405180910390f35b3480156106ec57600080fd5b5061070760048036038101906107029190613b66565b6113d7565b005b34801561071557600080fd5b50610730600480360381019061072b9190613d0f565b611439565b005b34801561073e57600080fd5b5061075960048036038101906107549190613e54565b6114b5565b6040516107669190614ca5565b60405180910390f35b34801561077b57600080fd5b5061079660048036038101906107919190613d61565b611628565b6040516107a391906150e7565b60405180910390f35b3480156107b857600080fd5b506107d360048036038101906107ce9190613ca8565b61164c565b6040516107e091906150e7565b60405180910390f35b3480156107f557600080fd5b50610810600480360381019061080b9190613ca8565b6116dc565b60405161081d91906150e7565b60405180910390f35b34801561083257600080fd5b5061084d60048036038101906108489190613d8a565b61176c565b005b34801561085b57600080fd5b5061087660048036038101906108719190613adb565b6117a0565b6040516108839190614c6f565b60405180910390f35b600061089782611872565b9050919050565b6060600280546108ad9061536e565b80601f01602080910402602001604051908101604052809291908181526020018280546108d99061536e565b80156109265780601f106108fb57610100808354040283529160200191610926565b820191906000526020600020905b81548152906001019060200180831161090957829003601f168201915b5050505050905090565b600061093b826118ec565b61097a576040517f08c379a000000000000000000000000000000000000000000000000000000000815260040161097190614f87565b60405180910390fd5b6007600083815260200190815260200160002060009054906101000a900473ffffffffffffffffffffffffffffffffffffffff169050919050565b60006109c082610ec2565b90508073ffffffffffffffffffffffffffffffffffffffff168373ffffffffffffffffffffffffffffffffffffffff161415610a31576040517f08c379a0000000000000000000000000000000000000000000000000000000008152600401610a2890615007565b60405180910390fd5b8073ffffffffffffffffffffffffffffffffffffffff16610a50611958565b73ffffffffffffffffffffffffffffffffffffffff161480610a7f5750610a7e81610a79611958565b6117a0565b5b610abe576040517f08c379a0000000000000000000000000000000000000000000000000000000008152600401610ab590614e87565b60405180910390fd5b610ac88383611960565b505050565b6000600b80549050905090565b610aeb610ae5611958565b82611a19565b610b2a576040517f08c379a0000000000000000000000000000000000000000000000000000000008152600401610b2190615027565b60405180910390fd5b610b35838383611af7565b505050565b6000806000838152602001908152602001600020600101549050919050565b610b638282611d53565b610b88816001600085815260200190815260200160002061184290919063ffffffff16565b505050565b6000610b9883610f74565b8210610bd9576040517f08c379a0000000000000000000000000000000000000000000000000000000008152600401610bd090614d47565b60405180910390fd5b600960008473ffffffffffffffffffffffffffffffffffffffff1673ffffffffffffffffffffffffffffffffffffffff168152602001908152602001600020600083815260200190815260200160002054905092915050565b610c3c8282611db9565b610c618160016000858152602001908152602001600020611e9f90919063ffffffff16565b505050565b6000610c997f9f2df0fed2c77648de5860a4cc508cd0818c85b8b8a1ab4ceeef8d981c8956a6610c94611958565b6110be565b610cd8576040517f08c379a0000000000000000000000000000000000000000000000000000000008152600401610ccf90614d27565b60405180910390fd5b610ce28383611ecf565b81905092915050565b610d06838383604051806020016040528060008152506113d7565b505050565b610d1c610d16611958565b82611a19565b610d5b576040517f08c379a0000000000000000000000000000000000000000000000000000000008152600401610d52906150a7565b60405180910390fd5b610d648161209d565b50565b610d7b6000801b610d76611958565b6110be565b610dba576040517f08c379a0000000000000000000000000000000000000000000000000000000008152600401610db190614f47565b60405180910390fd5b610dc482826121f5565b5050565b6000610dd2610acd565b8210610e13576040517f08c379a0000000000000000000000000000000000000000000000000000000008152600401610e0a90615067565b60405180910390fd5b600b8281548110610e4d577f4e487b7100000000000000000000000000000000000000000000000000000000600052603260045260246000fd5b90600052602060002001549050919050565b610e736000801b610e6e611958565b6110be565b610eb2576040517f08c379a0000000000000000000000000000000000000000000000000000000008152600401610ea990614f47565b60405180910390fd5b610ebd838383612359565b505050565b6000806005600084815260200190815260200160002060009054906101000a900473ffffffffffffffffffffffffffffffffffffffff169050600073ffffffffffffffffffffffffffffffffffffffff168173ffffffffffffffffffffffffffffffffffffffff161415610f6b576040517f08c379a0000000000000000000000000000000000000000000000000000000008152600401610f6290614ec7565b60405180910390fd5b80915050919050565b60008073ffffffffffffffffffffffffffffffffffffffff168273ffffffffffffffffffffffffffffffffffffffff161415610fe5576040517f08c379a0000000000000000000000000000000000000000000000000000000008152600401610fdc90614ea7565b60405180910390fd5b600660008373ffffffffffffffffffffffffffffffffffffffff1673ffffffffffffffffffffffffffffffffffffffff168152602001908152602001600020549050919050565b6110406000801b61103b611958565b6110be565b61107f576040517f08c379a000000000000000000000000000000000000000000000000000000000815260040161107690614f47565b60405180910390fd5b61108a83838361249a565b505050565b60006110b6826001600086815260200190815260200160002061257e90919063ffffffff16565b905092915050565b600080600084815260200190815260200160002060000160008373ffffffffffffffffffffffffffffffffffffffff1673ffffffffffffffffffffffffffffffffffffffff16815260200190815260200160002060009054906101000a900460ff16905092915050565b6060600380546111379061536e565b80601f01602080910402602001604051908101604052809291908181526020018280546111639061536e565b80156111b05780601f10611185576101008083540402835291602001916111b0565b820191906000526020600020905b81548152906001019060200180831161119357829003601f168201915b5050505050905090565b60006111ed7f9f2df0fed2c77648de5860a4cc508cd0818c85b8b8a1ab4ceeef8d981c8956a66111e8611958565b6110be565b61122c576040517f08c379a000000000000000000000000000000000000000000000000000000000815260040161122390614d27565b60405180910390fd5b6112368383612598565b81905092915050565b611247611958565b73ffffffffffffffffffffffffffffffffffffffff168273ffffffffffffffffffffffffffffffffffffffff1614156112b5576040517f08c379a00000000000000000000000000000000000000000000000000000000081526004016112ac90614e27565b60405180910390fd5b80600860006112c2611958565b73ffffffffffffffffffffffffffffffffffffffff1673ffffffffffffffffffffffffffffffffffffffff16815260200190815260200160002060008473ffffffffffffffffffffffffffffffffffffffff1673ffffffffffffffffffffffffffffffffffffffff16815260200190815260200160002060006101000a81548160ff0219169083151502179055508173ffffffffffffffffffffffffffffffffffffffff1661136f611958565b73ffffffffffffffffffffffffffffffffffffffff167f17307eab39ab6107e8899845ad3d59bd9653f200f220920489ca2b5937696c31836040516113b49190614c6f565b60405180910390a35050565b6000600d60009054906101000a900460ff16905090565b6113e86113e2611958565b83611a19565b611427576040517f08c379a000000000000000000000000000000000000000000000000000000000815260040161141e90615027565b60405180910390fd5b611433848484846125b6565b50505050565b61146a7f51b355059847d158e68950419dbcd54fad00bdfd0634c2515a5c533288c7f0a2611465611958565b6110be565b6114a9576040517f08c379a00000000000000000000000000000000000000000000000000000000081526004016114a090615087565b60405180910390fd5b6114b281612612565b50565b60606114c0826118ec565b6114ff576040517f08c379a00000000000000000000000000000000000000000000000000000000081526004016114f690614f67565b60405180910390fd5b600060046000848152602001908152602001600020805461151f9061536e565b80601f016020809104026020016040519081016040528092919081815260200182805461154b9061536e565b80156115985780601f1061156d57610100808354040283529160200191611598565b820191906000526020600020905b81548152906001019060200180831161157b57829003601f168201915b5050505050905060006115a961266f565b90506000815114156115bf578192505050611623565b6000825111156115f45780826040516020016115dc929190614b46565b60405160208183030381529060405292505050611623565b806115fe85612686565b60405160200161160f929190614b46565b604051602081830303815290604052925050505b919050565b600061164560016000848152602001908152602001600020612833565b9050919050565b600061167f7f9f2df0fed2c77648de5860a4cc508cd0818c85b8b8a1ab4ceeef8d981c8956a661167a611958565b6110be565b6116be576040517f08c379a00000000000000000000000000000000000000000000000000000000081526004016116b590614d27565b60405180910390fd5b6116c88484612598565b6116d28383612848565b8290509392505050565b600061170f7f9f2df0fed2c77648de5860a4cc508cd0818c85b8b8a1ab4ceeef8d981c8956a661170a611958565b6110be565b61174e576040517f08c379a000000000000000000000000000000000000000000000000000000000815260040161174590614d27565b60405180910390fd5b6117588484611ecf565b6117628383612848565b8290509392505050565b61177682826128bc565b61179b8160016000858152602001908152602001600020611e9f90919063ffffffff16565b505050565b6000600860008473ffffffffffffffffffffffffffffffffffffffff1673ffffffffffffffffffffffffffffffffffffffff16815260200190815260200160002060008373ffffffffffffffffffffffffffffffffffffffff1673ffffffffffffffffffffffffffffffffffffffff16815260200190815260200160002060009054906101000a900460ff16905092915050565b61183e8282612922565b5050565b600061186a836000018373ffffffffffffffffffffffffffffffffffffffff1660001b612a02565b905092915050565b60007f780e9d63000000000000000000000000000000000000000000000000000000007bffffffffffffffffffffffffffffffffffffffffffffffffffffffff1916827bffffffffffffffffffffffffffffffffffffffffffffffffffffffff191614806118e557506118e482612a72565b5b9050919050565b60008073ffffffffffffffffffffffffffffffffffffffff166005600084815260200190815260200160002060009054906101000a900473ffffffffffffffffffffffffffffffffffffffff1673ffffffffffffffffffffffffffffffffffffffff1614159050919050565b600033905090565b816007600083815260200190815260200160002060006101000a81548173ffffffffffffffffffffffffffffffffffffffff021916908373ffffffffffffffffffffffffffffffffffffffff160217905550808273ffffffffffffffffffffffffffffffffffffffff166119d383610ec2565b73ffffffffffffffffffffffffffffffffffffffff167f8c5be1e5ebec7d5bd14f71427d1e84f3dd0314c0f7b2291e5b200ac8c7c3b92560405160405180910390a45050565b6000611a24826118ec565b611a63576040517f08c379a0000000000000000000000000000000000000000000000000000000008152600401611a5a90614e47565b60405180910390fd5b6000611a6e83610ec2565b90508073ffffffffffffffffffffffffffffffffffffffff168473ffffffffffffffffffffffffffffffffffffffff161480611add57508373ffffffffffffffffffffffffffffffffffffffff16611ac584610930565b73ffffffffffffffffffffffffffffffffffffffff16145b80611aee5750611aed81856117a0565b5b91505092915050565b8273ffffffffffffffffffffffffffffffffffffffff16611b1782610ec2565b73ffffffffffffffffffffffffffffffffffffffff1614611b6d576040517f08c379a0000000000000000000000000000000000000000000000000000000008152600401611b6490614fa7565b60405180910390fd5b600073ffffffffffffffffffffffffffffffffffffffff168273ffffffffffffffffffffffffffffffffffffffff161415611bdd576040517f08c379a0000000000000000000000000000000000000000000000000000000008152600401611bd490614e07565b60405180910390fd5b611be8838383612b54565b611bf3600082611960565b6001600660008573ffffffffffffffffffffffffffffffffffffffff1673ffffffffffffffffffffffffffffffffffffffff1681526020019081526020016000206000828254611c439190615268565b925050819055506001600660008473ffffffffffffffffffffffffffffffffffffffff1673ffffffffffffffffffffffffffffffffffffffff1681526020019081526020016000206000828254611c9a91906151e1565b92505081905550816005600083815260200190815260200160002060006101000a81548173ffffffffffffffffffffffffffffffffffffffff021916908373ffffffffffffffffffffffffffffffffffffffff160217905550808273ffffffffffffffffffffffffffffffffffffffff168473ffffffffffffffffffffffffffffffffffffffff167fddf252ad1be2c89b69c2b068fc378daa952ba7f163c4a11628f55a4df523b3ef60405160405180910390a4505050565b611d6c611d5f83610b3a565b611d67611958565b6110be565b611dab576040517f08c379a0000000000000000000000000000000000000000000000000000000008152600401611da290614d07565b60405180910390fd5b611db58282612922565b5050565b611dc1611958565b73ffffffffffffffffffffffffffffffffffffffff168173ffffffffffffffffffffffffffffffffffffffff1614611e2e576040517f08c379a0000000000000000000000000000000000000000000000000000000008152600401611e25906150c7565b60405180910390fd5b7fcf9a83c51c2d3539180a23c4f68d150790a501e91d0ff1efc5f24718a3043d90821415611e91576040517f08c379a0000000000000000000000000000000000000000000000000000000008152600401611e8890615047565b60405180910390fd5b611e9b8282612ca2565b5050565b6000611ec7836000018373ffffffffffffffffffffffffffffffffffffffff1660001b612d83565b905092915050565b600073ffffffffffffffffffffffffffffffffffffffff168273ffffffffffffffffffffffffffffffffffffffff161415611f3f576040517f08c379a0000000000000000000000000000000000000000000000000000000008152600401611f3690614f27565b60405180910390fd5b611f48816118ec565b15611f88576040517f08c379a0000000000000000000000000000000000000000000000000000000008152600401611f7f90614d87565b60405180910390fd5b611f9460008383612b54565b6001600660008473ffffffffffffffffffffffffffffffffffffffff1673ffffffffffffffffffffffffffffffffffffffff1681526020019081526020016000206000828254611fe491906151e1565b92505081905550816005600083815260200190815260200160002060006101000a81548173ffffffffffffffffffffffffffffffffffffffff021916908373ffffffffffffffffffffffffffffffffffffffff160217905550808273ffffffffffffffffffffffffffffffffffffffff16600073ffffffffffffffffffffffffffffffffffffffff167fddf252ad1be2c89b69c2b068fc378daa952ba7f163c4a11628f55a4df523b3ef60405160405180910390a45050565b60006120a882610ec2565b90506120b681600084612b54565b6120c1600083611960565b60006004600084815260200190815260200160002080546120e19061536e565b90501461210857600460008381526020019081526020016000206000612107919061381b565b5b6001600660008373ffffffffffffffffffffffffffffffffffffffff1673ffffffffffffffffffffffffffffffffffffffff16815260200190815260200160002060008282546121589190615268565b925050819055506005600083815260200190815260200160002060006101000a81549073ffffffffffffffffffffffffffffffffffffffff021916905581600073ffffffffffffffffffffffffffffffffffffffff168273ffffffffffffffffffffffffffffffffffffffff167fddf252ad1be2c89b69c2b068fc378daa952ba7f163c4a11628f55a4df523b3ef60405160405180910390a45050565b600073ffffffffffffffffffffffffffffffffffffffff168273ffffffffffffffffffffffffffffffffffffffff161415612265576040517f08c379a000000000000000000000000000000000000000000000000000000000815260040161225c90614fe7565b60405180910390fd5b804710156122a8576040517f08c379a000000000000000000000000000000000000000000000000000000000815260040161229f90614de7565b60405180910390fd5b60008273ffffffffffffffffffffffffffffffffffffffff16826040516122ce90614b6a565b60006040518083038185875af1925050503d806000811461230b576040519150601f19603f3d011682016040523d82523d6000602084013e612310565b606091505b5050905080612354576040517f08c379a000000000000000000000000000000000000000000000000000000000815260040161234b90614dc7565b60405180910390fd5b505050565b600073ffffffffffffffffffffffffffffffffffffffff168373ffffffffffffffffffffffffffffffffffffffff1614156123c9576040517f08c379a00000000000000000000000000000000000000000000000000000000081526004016123c090614fe7565b60405180910390fd5b8073ffffffffffffffffffffffffffffffffffffffff1663a9059cbb84846040518363ffffffff1660e01b8152600401612404929190614c46565b602060405180830381600087803b15801561241e57600080fd5b505af1158015612432573d6000803e3d6000fd5b505050506040513d601f19601f820116820180604052508101906124569190613d38565b612495576040517f08c379a000000000000000000000000000000000000000000000000000000000815260040161248c90614da7565b60405180910390fd5b505050565b600073ffffffffffffffffffffffffffffffffffffffff168373ffffffffffffffffffffffffffffffffffffffff16141561250a576040517f08c379a000000000000000000000000000000000000000000000000000000000815260040161250190614fe7565b60405180910390fd5b8073ffffffffffffffffffffffffffffffffffffffff166323b872dd3085856040518463ffffffff1660e01b815260040161254793929190614b9a565b600060405180830381600087803b15801561256157600080fd5b505af1158015612575573d6000803e3d6000fd5b50505050505050565b600061258d8360000183612f01565b60001c905092915050565b6125b2828260405180602001604052806000815250612f9b565b5050565b6125c1848484611af7565b6125cd84848484612ff6565b61260c576040517f08c379a000000000000000000000000000000000000000000000000000000000815260040161260390614d67565b60405180910390fd5b50505050565b80600d60006101000a81548160ff0219169083151502179055507fe8699cf681560fd07de85543bd994263f4557bdc5179dd702f256d15fd083e1d612655611958565b82604051612664929190614c1d565b60405180910390a150565b606060405180602001604052806000815250905090565b606060008214156126ce576040518060400160405280600181526020017f3000000000000000000000000000000000000000000000000000000000000000815250905061282e565b600082905060005b600082146127005780806126e9906153a0565b915050600a826126f99190615237565b91506126d6565b60008167ffffffffffffffff811115612742577f4e487b7100000000000000000000000000000000000000000000000000000000600052604160045260246000fd5b6040519080825280601f01601f1916602001820160405280156127745781602001600182028036833780820191505090505b5090505b600085146128275760018261278d9190615268565b9150600a8561279c91906153e9565b60306127a891906151e1565b60f81b8183815181106127e4577f4e487b7100000000000000000000000000000000000000000000000000000000600052603260045260246000fd5b60200101907effffffffffffffffffffffffffffffffffffffffffffffffffffffffffffff1916908160001a905350600a856128209190615237565b9450612778565b8093505050505b919050565b60006128418260000161318d565b9050919050565b612851826118ec565b612890576040517f08c379a000000000000000000000000000000000000000000000000000000000815260040161288790614ee7565b60405180910390fd5b806004600084815260200190815260200160002090805190602001906128b792919061385b565b505050565b6128d56128c883610b3a565b6128d0611958565b6110be565b612914576040517f08c379a000000000000000000000000000000000000000000000000000000000815260040161290b90614e67565b60405180910390fd5b61291e8282612ca2565b5050565b61292c82826110be565b6129fe57600160008084815260200190815260200160002060000160008373ffffffffffffffffffffffffffffffffffffffff1673ffffffffffffffffffffffffffffffffffffffff16815260200190815260200160002060006101000a81548160ff0219169083151502179055506129a3611958565b73ffffffffffffffffffffffffffffffffffffffff168173ffffffffffffffffffffffffffffffffffffffff16837f2f8788117e7eff1d82e926ec794901d17c78024a50270940304540a733656f0d60405160405180910390a45b5050565b6000612a0e838361319e565b612a67578260000182908060018154018082558091505060019003906000526020600020016000909190919091505582600001805490508360010160008481526020019081526020016000208190555060019050612a6c565b600090505b92915050565b60007f80ac58cd000000000000000000000000000000000000000000000000000000007bffffffffffffffffffffffffffffffffffffffffffffffffffffffff1916827bffffffffffffffffffffffffffffffffffffffffffffffffffffffff19161480612b3d57507f5b5e139f000000000000000000000000000000000000000000000000000000007bffffffffffffffffffffffffffffffffffffffffffffffffffffffff1916827bffffffffffffffffffffffffffffffffffffffffffffffffffffffff1916145b80612b4d5750612b4c826131c1565b5b9050919050565b600073ffffffffffffffffffffffffffffffffffffffff168373ffffffffffffffffffffffffffffffffffffffff1614612bf357612bb27fefe866497efea00aa7574b13e86f62ebb584dfdf8dd4654ccc38107eb91840b8846110be565b15612bf2576040517f08c379a0000000000000000000000000000000000000000000000000000000008152600401612be990614f07565b60405180910390fd5b5b600073ffffffffffffffffffffffffffffffffffffffff168273ffffffffffffffffffffffffffffffffffffffff1614612c9257612c517fefe866497efea00aa7574b13e86f62ebb584dfdf8dd4654ccc38107eb91840b8836110be565b15612c91576040517f08c379a0000000000000000000000000000000000000000000000000000000008152600401612c8890614fc7565b60405180910390fd5b5b612c9d83838361323b565b505050565b612cac82826110be565b15612d7f57600080600084815260200190815260200160002060000160008373ffffffffffffffffffffffffffffffffffffffff1673ffffffffffffffffffffffffffffffffffffffff16815260200190815260200160002060006101000a81548160ff021916908315150217905550612d24611958565b73ffffffffffffffffffffffffffffffffffffffff168173ffffffffffffffffffffffffffffffffffffffff16837ff6391f5c32d9c69d2a47ea670b442974b53935d1edc7fd64eb21e047a839171b60405160405180910390a45b5050565b60008083600101600084815260200190815260200160002054905060008114612ef5576000600182612db59190615268565b9050600060018660000180549050612dcd9190615268565b90506000866000018281548110612e0d577f4e487b7100000000000000000000000000000000000000000000000000000000600052603260045260246000fd5b9060005260206000200154905080876000018481548110612e57577f4e487b7100000000000000000000000000000000000000000000000000000000600052603260045260246000fd5b9060005260206000200181905550838760010160008381526020019081526020016000208190555086600001805480612eb9577f4e487b7100000000000000000000000000000000000000000000000000000000600052603160045260246000fd5b60019003818190600052602060002001600090559055866001016000878152602001908152602001600020600090556001945050505050612efb565b60009150505b92915050565b600081836000018054905011612f4c576040517f08c379a0000000000000000000000000000000000000000000000000000000008152600401612f4390614cc7565b60405180910390fd5b826000018281548110612f88577f4e487b7100000000000000000000000000000000000000000000000000000000600052603260045260246000fd5b9060005260206000200154905092915050565b612fa58383611ecf565b612fb26000848484612ff6565b612ff1576040517f08c379a0000000000000000000000000000000000000000000000000000000008152600401612fe890614d67565b60405180910390fd5b505050565b60006130178473ffffffffffffffffffffffffffffffffffffffff16613293565b15613180578373ffffffffffffffffffffffffffffffffffffffff1663150b7a02613040611958565b8786866040518563ffffffff1660e01b81526004016130629493929190614bd1565b602060405180830381600087803b15801561307c57600080fd5b505af19250505080156130ad57506040513d601f19601f820116820180604052508101906130aa9190613e2b565b60015b613130573d80600081146130dd576040519150601f19603f3d011682016040523d82523d6000602084013e6130e2565b606091505b50600081511415613128576040517f08c379a000000000000000000000000000000000000000000000000000000000815260040161311f90614d67565b60405180910390fd5b805181602001fd5b63150b7a0260e01b7bffffffffffffffffffffffffffffffffffffffffffffffffffffffff1916817bffffffffffffffffffffffffffffffffffffffffffffffffffffffff191614915050613185565b600190505b949350505050565b600081600001805490509050919050565b600080836001016000848152602001908152602001600020541415905092915050565b60007f5a05180f000000000000000000000000000000000000000000000000000000007bffffffffffffffffffffffffffffffffffffffffffffffffffffffff1916827bffffffffffffffffffffffffffffffffffffffffffffffffffffffff191614806132345750613233826132a6565b5b9050919050565b613246838383613320565b61324e6113c0565b1561328e576040517f08c379a000000000000000000000000000000000000000000000000000000000815260040161328590614ce7565b60405180910390fd5b505050565b600080823b905060008111915050919050565b60007f7965db0b000000000000000000000000000000000000000000000000000000007bffffffffffffffffffffffffffffffffffffffffffffffffffffffff1916827bffffffffffffffffffffffffffffffffffffffffffffffffffffffff19161480613319575061331882613434565b5b9050919050565b61332b83838361349e565b600073ffffffffffffffffffffffffffffffffffffffff168373ffffffffffffffffffffffffffffffffffffffff16141561336e57613369816134a3565b6133ad565b8173ffffffffffffffffffffffffffffffffffffffff168373ffffffffffffffffffffffffffffffffffffffff16146133ac576133ab83826134ec565b5b5b600073ffffffffffffffffffffffffffffffffffffffff168273ffffffffffffffffffffffffffffffffffffffff1614156133f0576133eb81613659565b61342f565b8273ffffffffffffffffffffffffffffffffffffffff168273ffffffffffffffffffffffffffffffffffffffff161461342e5761342d828261379c565b5b5b505050565b60007f01ffc9a7000000000000000000000000000000000000000000000000000000007bffffffffffffffffffffffffffffffffffffffffffffffffffffffff1916827bffffffffffffffffffffffffffffffffffffffffffffffffffffffff1916149050919050565b505050565b600b80549050600c600083815260200190815260200160002081905550600b81908060018154018082558091505060019003906000526020600020016000909190919091505550565b600060016134f984610f74565b6135039190615268565b90506000600a60008481526020019081526020016000205490508181146135e8576000600960008673ffffffffffffffffffffffffffffffffffffffff1673ffffffffffffffffffffffffffffffffffffffff168152602001908152602001600020600084815260200190815260200160002054905080600960008773ffffffffffffffffffffffffffffffffffffffff1673ffffffffffffffffffffffffffffffffffffffff16815260200190815260200160002060008481526020019081526020016000208190555081600a600083815260200190815260200160002081905550505b600a600084815260200190815260200160002060009055600960008573ffffffffffffffffffffffffffffffffffffffff1673ffffffffffffffffffffffffffffffffffffffff16815260200190815260200160002060008381526020019081526020016000206000905550505050565b60006001600b8054905061366d9190615268565b90506000600c60008481526020019081526020016000205490506000600b83815481106136c3577f4e487b7100000000000000000000000000000000000000000000000000000000600052603260045260246000fd5b9060005260206000200154905080600b838154811061370b577f4e487b7100000000000000000000000000000000000000000000000000000000600052603260045260246000fd5b906000526020600020018190555081600c600083815260200190815260200160002081905550600c600085815260200190815260200160002060009055600b805480613780577f4e487b7100000000000000000000000000000000000000000000000000000000600052603160045260246000fd5b6001900381819060005260206000200160009055905550505050565b60006137a783610f74565b905081600960008573ffffffffffffffffffffffffffffffffffffffff1673ffffffffffffffffffffffffffffffffffffffff16815260200190815260200160002060008381526020019081526020016000208190555080600a600084815260200190815260200160002081905550505050565b5080546138279061536e565b6000825580601f106138395750613858565b601f01602090049060005260206000209081019061385791906138e1565b5b50565b8280546138679061536e565b90600052602060002090601f01602090048101928261388957600085556138d0565b82601f106138a257805160ff19168380011785556138d0565b828001600101855582156138d0579182015b828111156138cf5782518255916020019190600101906138b4565b5b5090506138dd91906138e1565b5090565b5b808211156138fa5760008160009055506001016138e2565b5090565b600061391161390c84615133565b615102565b90508281526020810184848401111561392957600080fd5b61393484828561532c565b509392505050565b600061394f61394a84615163565b615102565b90508281526020810184848401111561396757600080fd5b61397284828561532c565b509392505050565b600081359050613989816154e7565b92915050565b60008135905061399e816154fe565b92915050565b6000813590506139b381615515565b92915050565b6000815190506139c881615515565b92915050565b6000813590506139dd8161552c565b92915050565b6000813590506139f281615543565b92915050565b600081519050613a0781615543565b92915050565b600082601f830112613a1e57600080fd5b8135613a2e8482602086016138fe565b91505092915050565b600082601f830112613a4857600080fd5b8135613a5884826020860161393c565b91505092915050565b600081359050613a708161555a565b92915050565b600060208284031215613a8857600080fd5b6000613a968482850161397a565b91505092915050565b60008060408385031215613ab257600080fd5b6000613ac08582860161398f565b9250506020613ad185828601613a61565b9150509250929050565b60008060408385031215613aee57600080fd5b6000613afc8582860161397a565b9250506020613b0d8582860161397a565b9150509250929050565b600080600060608486031215613b2c57600080fd5b6000613b3a8682870161397a565b9350506020613b4b8682870161397a565b9250506040613b5c86828701613a61565b9150509250925092565b60008060008060808587031215613b7c57600080fd5b6000613b8a8782880161397a565b9450506020613b9b8782880161397a565b9350506040613bac87828801613a61565b925050606085013567ffffffffffffffff811115613bc957600080fd5b613bd587828801613a0d565b91505092959194509250565b60008060408385031215613bf457600080fd5b6000613c028582860161397a565b9250506020613c13858286016139a4565b9150509250929050565b60008060408385031215613c3057600080fd5b6000613c3e8582860161397a565b9250506020613c4f85828601613a61565b9150509250929050565b600080600060608486031215613c6e57600080fd5b6000613c7c8682870161397a565b9350506020613c8d86828701613a61565b9250506040613c9e8682870161397a565b9150509250925092565b600080600060608486031215613cbd57600080fd5b6000613ccb8682870161397a565b9350506020613cdc86828701613a61565b925050604084013567ffffffffffffffff811115613cf957600080fd5b613d0586828701613a37565b9150509250925092565b600060208284031215613d2157600080fd5b6000613d2f848285016139a4565b91505092915050565b600060208284031215613d4a57600080fd5b6000613d58848285016139b9565b91505092915050565b600060208284031215613d7357600080fd5b6000613d81848285016139ce565b91505092915050565b60008060408385031215613d9d57600080fd5b6000613dab858286016139ce565b9250506020613dbc8582860161397a565b9150509250929050565b60008060408385031215613dd957600080fd5b6000613de7858286016139ce565b9250506020613df885828601613a61565b9150509250929050565b600060208284031215613e1457600080fd5b6000613e22848285016139e3565b91505092915050565b600060208284031215613e3d57600080fd5b6000613e4b848285016139f8565b91505092915050565b600060208284031215613e6657600080fd5b6000613e7484828501613a61565b91505092915050565b613e868161529c565b82525050565b613e95816152c0565b82525050565b613ea4816152cc565b82525050565b6000613eb582615193565b613ebf81856151a9565b9350613ecf81856020860161533b565b613ed8816154d6565b840191505092915050565b6000613eee8261519e565b613ef881856151c5565b9350613f0881856020860161533b565b613f11816154d6565b840191505092915050565b6000613f278261519e565b613f3181856151d6565b9350613f4181856020860161533b565b80840191505092915050565b6000613f5a6022836151c5565b91507f456e756d657261626c655365743a20696e646578206f7574206f6620626f756e60008301527f64730000000000000000000000000000000000000000000000000000000000006020830152604082019050919050565b6000613fc0602b836151c5565b91507f4552433732315061757361626c653a20746f6b656e207472616e73666572207760008301527f68696c65207061757365640000000000000000000000000000000000000000006020830152604082019050919050565b6000614026602f836151c5565b91507f416363657373436f6e74726f6c3a2073656e646572206d75737420626520616e60008301527f2061646d696e20746f206772616e7400000000000000000000000000000000006020830152604082019050919050565b600061408c6020836151c5565b91507f416363657373436f6e74726f6c456e756d657261626c653a20214d696e7465726000830152602082019050919050565b60006140cc602b836151c5565b91507f455243373231456e756d657261626c653a206f776e657220696e646578206f7560008301527f74206f6620626f756e64730000000000000000000000000000000000000000006020830152604082019050919050565b60006141326032836151c5565b91507f4552433732313a207472616e7366657220746f206e6f6e20455243373231526560008301527f63656976657220696d706c656d656e74657200000000000000000000000000006020830152604082019050919050565b6000614198601c836151c5565b91507f4552433732313a20746f6b656e20616c7265616479206d696e746564000000006000830152602082019050919050565b60006141d86026836151c5565b91507f4661696c73616665436f6e74726f6c3a204552433230207472616e736665722060008301527f6661696c656400000000000000000000000000000000000000000000000000006020830152604082019050919050565b600061423e6024836151c5565b91507f4661696c73616665436f6e74726f6c3a20455448207472616e7366657220666160008301527f696c6564000000000000000000000000000000000000000000000000000000006020830152604082019050919050565b60006142a46029836151c5565b91507f4661696c73616665436f6e74726f6c3a20496e73756666696369656e7420455460008301527f482062616c616e636500000000000000000000000000000000000000000000006020830152604082019050919050565b600061430a6024836151c5565b91507f4552433732313a207472616e7366657220746f20746865207a65726f2061646460008301527f72657373000000000000000000000000000000000000000000000000000000006020830152604082019050919050565b60006143706019836151c5565b91507f4552433732313a20617070726f766520746f2063616c6c6572000000000000006000830152602082019050919050565b60006143b0602c836151c5565b91507f4552433732313a206f70657261746f7220717565727920666f72206e6f6e657860008301527f697374656e7420746f6b656e00000000000000000000000000000000000000006020830152604082019050919050565b60006144166030836151c5565b91507f416363657373436f6e74726f6c3a2073656e646572206d75737420626520616e60008301527f2061646d696e20746f207265766f6b65000000000000000000000000000000006020830152604082019050919050565b600061447c6038836151c5565b91507f4552433732313a20617070726f76652063616c6c6572206973206e6f74206f7760008301527f6e6572206e6f7220617070726f76656420666f7220616c6c00000000000000006020830152604082019050919050565b60006144e2602a836151c5565b91507f4552433732313a2062616c616e636520717565727920666f7220746865207a6560008301527f726f2061646472657373000000000000000000000000000000000000000000006020830152604082019050919050565b60006145486029836151c5565b91507f4552433732313a206f776e657220717565727920666f72206e6f6e657869737460008301527f656e7420746f6b656e00000000000000000000000000000000000000000000006020830152604082019050919050565b60006145ae602e836151c5565b91507f45524337323155524953746f726167653a2055524920736574206f66206e6f6e60008301527f6578697374656e7420746f6b656e0000000000000000000000000000000000006020830152604082019050919050565b6000614614601b836151c5565b91507f455243373231544f4b454e3a2073656e64657220626c6f636b656400000000006000830152602082019050919050565b60006146546020836151c5565b91507f4552433732313a206d696e7420746f20746865207a65726f20616464726573736000830152602082019050919050565b6000614694601f836151c5565b91507f416363657373436f6e74726f6c456e756d657261626c653a20214f776e6572006000830152602082019050919050565b60006146d46031836151c5565b91507f45524337323155524953746f726167653a2055524920717565727920666f722060008301527f6e6f6e6578697374656e7420746f6b656e0000000000000000000000000000006020830152604082019050919050565b600061473a602c836151c5565b91507f4552433732313a20617070726f76656420717565727920666f72206e6f6e657860008301527f697374656e7420746f6b656e00000000000000000000000000000000000000006020830152604082019050919050565b60006147a06029836151c5565b91507f4552433732313a207472616e73666572206f6620746f6b656e2074686174206960008301527f73206e6f74206f776e00000000000000000000000000000000000000000000006020830152604082019050919050565b6000614806601e836151c5565b91507f455243373231544f4b454e3a20726563697069656e7420626c6f636b656400006000830152602082019050919050565b6000614846601d836151c5565b91507f4661696c73616665436f6e74726f6c3a207a65726f20616464726573730000006000830152602082019050919050565b60006148866021836151c5565b91507f4552433732313a20617070726f76616c20746f2063757272656e74206f776e6560008301527f72000000000000000000000000000000000000000000000000000000000000006020830152604082019050919050565b60006148ec6000836151ba565b9150600082019050919050565b60006149066031836151c5565b91507f4552433732313a207472616e736665722063616c6c6572206973206e6f74206f60008301527f776e6572206e6f7220617070726f7665640000000000000000000000000000006020830152604082019050919050565b600061496c6028836151c5565b91507f416363657373436f6e74726f6c3a20726f6c652063616e206e6f74206265207260008301527f656e6f756e6365640000000000000000000000000000000000000000000000006020830152604082019050919050565b60006149d2602c836151c5565b91507f455243373231456e756d657261626c653a20676c6f62616c20696e646578206f60008301527f7574206f6620626f756e647300000000000000000000000000000000000000006020830152604082019050919050565b6000614a38601d836151c5565b91507f416363657373436f6e74726f6c456e756d657261626c653a20214465760000006000830152602082019050919050565b6000614a786030836151c5565b91507f4552433732314275726e61626c653a2063616c6c6572206973206e6f74206f7760008301527f6e6572206e6f7220617070726f766564000000000000000000000000000000006020830152604082019050919050565b6000614ade602f836151c5565b91507f416363657373436f6e74726f6c3a2063616e206f6e6c792072656e6f756e636560008301527f20726f6c657320666f722073656c6600000000000000000000000000000000006020830152604082019050919050565b614b4081615322565b82525050565b6000614b528285613f1c565b9150614b5e8284613f1c565b91508190509392505050565b6000614b75826148df565b9150819050919050565b6000602082019050614b946000830184613e7d565b92915050565b6000606082019050614baf6000830186613e7d565b614bbc6020830185613e7d565b614bc96040830184614b37565b949350505050565b6000608082019050614be66000830187613e7d565b614bf36020830186613e7d565b614c006040830185614b37565b8181036060830152614c128184613eaa565b905095945050505050565b6000604082019050614c326000830185613e7d565b614c3f6020830184613e8c565b9392505050565b6000604082019050614c5b6000830185613e7d565b614c686020830184614b37565b9392505050565b6000602082019050614c846000830184613e8c565b92915050565b6000602082019050614c9f6000830184613e9b565b92915050565b60006020820190508181036000830152614cbf8184613ee3565b905092915050565b60006020820190508181036000830152614ce081613f4d565b9050919050565b60006020820190508181036000830152614d0081613fb3565b9050919050565b60006020820190508181036000830152614d2081614019565b9050919050565b60006020820190508181036000830152614d408161407f565b9050919050565b60006020820190508181036000830152614d60816140bf565b9050919050565b60006020820190508181036000830152614d8081614125565b9050919050565b60006020820190508181036000830152614da08161418b565b9050919050565b60006020820190508181036000830152614dc0816141cb565b9050919050565b60006020820190508181036000830152614de081614231565b9050919050565b60006020820190508181036000830152614e0081614297565b9050919050565b60006020820190508181036000830152614e20816142fd565b9050919050565b60006020820190508181036000830152614e4081614363565b9050919050565b60006020820190508181036000830152614e60816143a3565b9050919050565b60006020820190508181036000830152614e8081614409565b9050919050565b60006020820190508181036000830152614ea08161446f565b9050919050565b60006020820190508181036000830152614ec0816144d5565b9050919050565b60006020820190508181036000830152614ee08161453b565b9050919050565b60006020820190508181036000830152614f00816145a1565b9050919050565b60006020820190508181036000830152614f2081614607565b9050919050565b60006020820190508181036000830152614f4081614647565b9050919050565b60006020820190508181036000830152614f6081614687565b9050919050565b60006020820190508181036000830152614f80816146c7565b9050919050565b60006020820190508181036000830152614fa08161472d565b9050919050565b60006020820190508181036000830152614fc081614793565b9050919050565b60006020820190508181036000830152614fe0816147f9565b9050919050565b6000602082019050818103600083015261500081614839565b9050919050565b6000602082019050818103600083015261502081614879565b9050919050565b60006020820190508181036000830152615040816148f9565b9050919050565b600060208201905081810360008301526150608161495f565b9050919050565b60006020820190508181036000830152615080816149c5565b9050919050565b600060208201905081810360008301526150a081614a2b565b9050919050565b600060208201905081810360008301526150c081614a6b565b9050919050565b600060208201905081810360008301526150e081614ad1565b9050919050565b60006020820190506150fc6000830184614b37565b92915050565b6000604051905081810181811067ffffffffffffffff82111715615129576151286154a7565b5b8060405250919050565b600067ffffffffffffffff82111561514e5761514d6154a7565b5b601f19601f8301169050602081019050919050565b600067ffffffffffffffff82111561517e5761517d6154a7565b5b601f19601f8301169050602081019050919050565b600081519050919050565b600081519050919050565b600082825260208201905092915050565b600081905092915050565b600082825260208201905092915050565b600081905092915050565b60006151ec82615322565b91506151f783615322565b9250827fffffffffffffffffffffffffffffffffffffffffffffffffffffffffffffffff0382111561522c5761522b61541a565b5b828201905092915050565b600061524282615322565b915061524d83615322565b92508261525d5761525c615449565b5b828204905092915050565b600061527382615322565b915061527e83615322565b9250828210156152915761529061541a565b5b828203905092915050565b60006152a782615302565b9050919050565b60006152b982615302565b9050919050565b60008115159050919050565b6000819050919050565b60007fffffffff0000000000000000000000000000000000000000000000000000000082169050919050565b600073ffffffffffffffffffffffffffffffffffffffff82169050919050565b6000819050919050565b82818337600083830152505050565b60005b8381101561535957808201518184015260208101905061533e565b83811115615368576000848401525b50505050565b6000600282049050600182168061538657607f821691505b6020821081141561539a57615399615478565b5b50919050565b60006153ab82615322565b91507fffffffffffffffffffffffffffffffffffffffffffffffffffffffffffffffff8214156153de576153dd61541a565b5b600182019050919050565b60006153f482615322565b91506153ff83615322565b92508261540f5761540e615449565b5b828206905092915050565b7f4e487b7100000000000000000000000000000000000000000000000000000000600052601160045260246000fd5b7f4e487b7100000000000000000000000000000000000000000000000000000000600052601260045260246000fd5b7f4e487b7100000000000000000000000000000000000000000000000000000000600052602260045260246000fd5b7f4e487b7100000000000000000000000000000000000000000000000000000000600052604160045260246000fd5b6000601f19601f8301169050919050565b6154f08161529c565b81146154fb57600080fd5b50565b615507816152ae565b811461551257600080fd5b50565b61551e816152c0565b811461552957600080fd5b50565b615535816152cc565b811461554057600080fd5b50565b61554c816152d6565b811461555757600080fd5b50565b61556381615322565b811461556e57600080fd5b5056fea26469706673582212202c2c5c7250a8081abfa7734d98d06e6a350efcb59ffcc8819b52a67878eb327764736f6c63430008000033",
  "immutableReferences": {},
  "source": "// SPDX-License-Identifier: GPL-3.0-or-later\r\npragma solidity ^0.8.0;\r\n\r\nimport \"./context.sol\";\r\nimport \"./AccessControlWithEnumerable.sol\";\r\nimport \"./ERC721.sol\";\r\nimport \"./FailsafeControl.sol\";\r\n\r\ncontract ERC721TOKEN is Context, AccessControlEnumerable, ERC721Enumerable, ERC721Pausable, ERC721Burnable, FailsafeControl {\r\n\r\n    constructor(string memory name_, string memory symbol_) ERC721(name_, symbol_) {\r\n        _setupRole(DEFAULT_ADMIN_ROLE, _msgSender());\r\n        _setupRole(DEV_ROLE, _msgSender());\r\n        _setupRole(MINTER_ROLE, _msgSender());\r\n\r\n        _setRoleAdmin(MINTER_ROLE,DEV_ROLE);\r\n        _setRoleAdmin(BLOCK_ROLE,DEV_ROLE);\r\n\r\n    }\r\n\r\n    function mint(address to,uint256 tokenId) public onlyMinter returns (uint256) {\r\n        _mint(to, tokenId);\r\n        return tokenId;\r\n    }\r\n\r\n    function mint(address to,uint256 tokenId,string memory tokenURI) public onlyMinter returns (uint256) {\r\n        _mint(to, tokenId);\r\n        _setTokenURI(tokenId, tokenURI);\r\n        return tokenId;\r\n    }\r\n\r\n    function safeMint(address to,uint256 tokenId) public onlyMinter returns (uint256) {\r\n        _safeMint(to, tokenId);\r\n        return tokenId;\r\n    }\r\n    \r\n    function safeMint(address to,uint256 tokenId,string memory tokenURI) public onlyMinter returns (uint256) {\r\n        _safeMint(to, tokenId);\r\n        _setTokenURI(tokenId, tokenURI);\r\n        return tokenId;\r\n    }\r\n\r\n    /**\r\n     * @notice Sets the contract's paused state.\r\n     * @param _paused The new paused state to set.\r\n     */\r\n    function setPause(bool _paused) public virtual onlyDev{\r\n        _pause(_paused);\r\n    }\r\n\r\n    function _beforeTokenTransfer(address from, address to, uint256 tokenId) internal virtual override(ERC721, ERC721Enumerable, ERC721Pausable) {\r\n\r\n        // Blocklist enforcement\r\n        if (from != address(0)) {\r\n            require(!hasRole(BLOCK_ROLE, from), \"ERC721TOKEN: sender blocked\");\r\n        }\r\n        if (to != address(0)) {\r\n            require(!hasRole(BLOCK_ROLE, to), \"ERC721TOKEN: recipient blocked\");\r\n        }\r\n\r\n        // Proceed with inherited logic if checks pass\r\n        super._beforeTokenTransfer(from, to, tokenId);\r\n    }\r\n\r\n    function supportsInterface(bytes4 interfaceId) public view virtual override(AccessControlEnumerable, ERC721, ERC721Enumerable) returns (bool) {\r\n        return super.supportsInterface(interfaceId);\r\n    }\r\n\r\n\r\n    function withdrawETH(address payable to, uint256 value) external onlyOwner {\r\n        _rescueETH(to, value);\r\n    }\r\n\r\n    function withdrawERC20(address to, uint256 value, address token) external onlyOwner {\r\n        _rescueERC20(to, value, token);\r\n    }\r\n\r\n    function withdrawERC721(address to, uint256 tokenId, address token) external onlyOwner {\r\n        _rescueERC721(to, tokenId, token);\r\n    }\r\n}\r\n",
  "sourcePath": "D:\\rish rv\\contract\\contracts\\erc721-NFT\\ERC721TOKEN.sol",
  "compiler": {
    "name": "solc",
    "version": "0.8.0+commit.c7dfd78e.Emscripten.clang"
  },
  "schemaVersion": "3.4.10",
  "updatedAt": "2025-12-05T20:32:31.603Z",
  "networkType": "ethereum",
  "devdoc": {
    "kind": "dev",
    "methods": {
      "approve(address,uint256)": {
        "details": "See {IERC721-approve}."
      },
      "balanceOf(address)": {
        "details": "See {IERC721-balanceOf}."
      },
      "burn(uint256)": {
        "details": "Burns `tokenId`. See {ERC721-_burn}. Requirements: - The caller must own `tokenId` or be an approved operator."
      },
      "getApproved(uint256)": {
        "details": "See {IERC721-getApproved}."
      },
      "getRoleAdmin(bytes32)": {
        "details": "Returns the admin role that controls `role`. See {grantRole} and {revokeRole}. To change a role's admin, use {_setRoleAdmin}."
      },
      "getRoleMember(bytes32,uint256)": {
        "details": "Returns one of the accounts that have `role`. `index` must be a value between 0 and {getRoleMemberCount}, non-inclusive. Role bearers are not sorted in any particular way, and their ordering may change at any point. WARNING: When using {getRoleMember} and {getRoleMemberCount}, make sure you perform all queries on the same block. See the following https://forum.openzeppelin.com/t/iterating-over-elements-on-enumerableset-in-openzeppelin-contracts/2296[forum post] for more information."
      },
      "getRoleMemberCount(bytes32)": {
        "details": "Returns the number of accounts that have `role`. Can be used together with {getRoleMember} to enumerate all bearers of a role."
      },
      "grantRole(bytes32,address)": {
        "details": "Overload {grantRole} to track enumerable memberships"
      },
      "hasRole(bytes32,address)": {
        "details": "Returns `true` if `account` has been granted `role`."
      },
      "isApprovedForAll(address,address)": {
        "details": "See {IERC721-isApprovedForAll}."
      },
      "isPaused()": {
        "details": "Returns true if the contract is paused, and false otherwise."
      },
      "name()": {
        "details": "See {IERC721Metadata-name}."
      },
      "ownerOf(uint256)": {
        "details": "See {IERC721-ownerOf}."
      },
      "renounceRole(bytes32,address)": {
        "details": "Overload {renounceRole} to track enumerable memberships"
      },
      "revokeRole(bytes32,address)": {
        "details": "Overload {revokeRole} to track enumerable memberships"
      },
      "safeTransferFrom(address,address,uint256)": {
        "details": "See {IERC721-safeTransferFrom}."
      },
      "safeTransferFrom(address,address,uint256,bytes)": {
        "details": "See {IERC721-safeTransferFrom}."
      },
      "setApprovalForAll(address,bool)": {
        "details": "See {IERC721-setApprovalForAll}."
      },
      "setPause(bool)": {
        "params": {
          "_paused": "The new paused state to set."
        }
      },
      "symbol()": {
        "details": "See {IERC721Metadata-symbol}."
      },
      "tokenByIndex(uint256)": {
        "details": "See {IERC721Enumerable-tokenByIndex}."
      },
      "tokenOfOwnerByIndex(address,uint256)": {
        "details": "See {IERC721Enumerable-tokenOfOwnerByIndex}."
      },
      "tokenURI(uint256)": {
        "details": "Returns the Uniform Resource Identifier (URI) for `tokenId` token."
      },
      "totalSupply()": {
        "details": "See {IERC721Enumerable-totalSupply}."
      },
      "transferFrom(address,address,uint256)": {
        "details": "See {IERC721-transferFrom}."
      }
    },
    "version": 1
  },
  "userdoc": {
    "kind": "user",
    "methods": {
      "setPause(bool)": {
        "notice": "Sets the contract's paused state."
      }
    },
    "version": 1
  }
}