{
  "contractName": "MintController",
  "abi": [
    {
      "inputs": [
        {
          "internalType": "address",
          "name": "nftAddress",
          "type": "address"
        },
        {
          "internalType": "uint256",
          "name": "_mintFee",
          "type": "uint256"
        },
        {
          "internalType": "uint256",
          "name": "_mintStartTime",
          "type": "uint256"
        },
        {
          "internalType": "uint256",
          "name": "_maxBatchSize",
          "type": "uint256"
        }
      ],
      "stateMutability": "nonpayable",
      "type": "constructor"
    },
    {
      "anonymous": false,
      "inputs": [
        {
          "indexed": true,
          "internalType": "address",
          "name": "account",
          "type": "address"
        },
        {
          "indexed": false,
          "internalType": "uint256",
          "name": "tokenId",
          "type": "uint256"
        }
      ],
      "name": "NewMint",
      "type": "event"
    },
    {
      "anonymous": false,
      "inputs": [
        {
          "indexed": false,
          "internalType": "address",
          "name": "account",
          "type": "address"
        },
        {
          "indexed": false,
          "internalType": "bool",
          "name": "status",
          "type": "bool"
        }
      ],
      "name": "Paused",
      "type": "event"
    },
    {
      "anonymous": false,
      "inputs": [
        {
          "indexed": true,
          "internalType": "bytes32",
          "name": "role",
          "type": "bytes32"
        },
        {
          "indexed": true,
          "internalType": "bytes32",
          "name": "previousAdminRole",
          "type": "bytes32"
        },
        {
          "indexed": true,
          "internalType": "bytes32",
          "name": "newAdminRole",
          "type": "bytes32"
        }
      ],
      "name": "RoleAdminChanged",
      "type": "event"
    },
    {
      "anonymous": false,
      "inputs": [
        {
          "indexed": true,
          "internalType": "bytes32",
          "name": "role",
          "type": "bytes32"
        },
        {
          "indexed": true,
          "internalType": "address",
          "name": "account",
          "type": "address"
        },
        {
          "indexed": true,
          "internalType": "address",
          "name": "sender",
          "type": "address"
        }
      ],
      "name": "RoleGranted",
      "type": "event"
    },
    {
      "anonymous": false,
      "inputs": [
        {
          "indexed": true,
          "internalType": "bytes32",
          "name": "role",
          "type": "bytes32"
        },
        {
          "indexed": true,
          "internalType": "address",
          "name": "account",
          "type": "address"
        },
        {
          "indexed": true,
          "internalType": "address",
          "name": "sender",
          "type": "address"
        }
      ],
      "name": "RoleRevoked",
      "type": "event"
    },
    {
      "stateMutability": "payable",
      "type": "fallback",
      "payable": true
    },
    {
      "inputs": [],
      "name": "TOKEN_LIMIT",
      "outputs": [
        {
          "internalType": "uint256",
          "name": "",
          "type": "uint256"
        }
      ],
      "stateMutability": "view",
      "type": "function",
      "constant": true
    },
    {
      "inputs": [
        {
          "internalType": "address",
          "name": "to",
          "type": "address"
        },
        {
          "internalType": "uint256",
          "name": "value",
          "type": "uint256"
        },
        {
          "internalType": "address",
          "name": "token",
          "type": "address"
        }
      ],
      "name": "claimERC20",
      "outputs": [],
      "stateMutability": "nonpayable",
      "type": "function"
    },
    {
      "inputs": [
        {
          "internalType": "address",
          "name": "to",
          "type": "address"
        },
        {
          "internalType": "uint256",
          "name": "tokenId",
          "type": "uint256"
        },
        {
          "internalType": "address",
          "name": "token",
          "type": "address"
        }
      ],
      "name": "claimERC721",
      "outputs": [],
      "stateMutability": "nonpayable",
      "type": "function"
    },
    {
      "inputs": [
        {
          "internalType": "address payable",
          "name": "to",
          "type": "address"
        },
        {
          "internalType": "uint256",
          "name": "value",
          "type": "uint256"
        }
      ],
      "name": "claimETH",
      "outputs": [],
      "stateMutability": "nonpayable",
      "type": "function"
    },
    {
      "inputs": [],
      "name": "getNftContract",
      "outputs": [
        {
          "internalType": "address",
          "name": "",
          "type": "address"
        }
      ],
      "stateMutability": "view",
      "type": "function",
      "constant": true
    },
    {
      "inputs": [
        {
          "internalType": "bytes32",
          "name": "role",
          "type": "bytes32"
        }
      ],
      "name": "getRoleAdmin",
      "outputs": [
        {
          "internalType": "bytes32",
          "name": "",
          "type": "bytes32"
        }
      ],
      "stateMutability": "view",
      "type": "function",
      "constant": true
    },
    {
      "inputs": [
        {
          "internalType": "bytes32",
          "name": "role",
          "type": "bytes32"
        },
        {
          "internalType": "address",
          "name": "account",
          "type": "address"
        }
      ],
      "name": "grantRole",
      "outputs": [],
      "stateMutability": "nonpayable",
      "type": "function"
    },
    {
      "inputs": [
        {
          "internalType": "bytes32",
          "name": "role",
          "type": "bytes32"
        },
        {
          "internalType": "address",
          "name": "account",
          "type": "address"
        }
      ],
      "name": "hasRole",
      "outputs": [
        {
          "internalType": "bool",
          "name": "",
          "type": "bool"
        }
      ],
      "stateMutability": "view",
      "type": "function",
      "constant": true
    },
    {
      "inputs": [],
      "name": "isPaused",
      "outputs": [
        {
          "internalType": "bool",
          "name": "",
          "type": "bool"
        }
      ],
      "stateMutability": "view",
      "type": "function",
      "constant": true
    },
    {
      "inputs": [],
      "name": "maxBatchSize",
      "outputs": [
        {
          "internalType": "uint256",
          "name": "",
          "type": "uint256"
        }
      ],
      "stateMutability": "view",
      "type": "function",
      "constant": true
    },
    {
      "inputs": [],
      "name": "mintStartTime",
      "outputs": [
        {
          "internalType": "uint256",
          "name": "",
          "type": "uint256"
        }
      ],
      "stateMutability": "view",
      "type": "function",
      "constant": true
    },
    {
      "inputs": [
        {
          "internalType": "uint256",
          "name": "tokenId",
          "type": "uint256"
        }
      ],
      "name": "minterOf",
      "outputs": [
        {
          "internalType": "address",
          "name": "",
          "type": "address"
        }
      ],
      "stateMutability": "view",
      "type": "function",
      "constant": true
    },
    {
      "inputs": [
        {
          "internalType": "uint256[]",
          "name": "tokenIds",
          "type": "uint256[]"
        }
      ],
      "name": "mintersOf",
      "outputs": [
        {
          "internalType": "address[]",
          "name": "",
          "type": "address[]"
        }
      ],
      "stateMutability": "view",
      "type": "function",
      "constant": true
    },
    {
      "inputs": [
        {
          "internalType": "bytes32",
          "name": "role",
          "type": "bytes32"
        },
        {
          "internalType": "address",
          "name": "account",
          "type": "address"
        }
      ],
      "name": "renounceRole",
      "outputs": [],
      "stateMutability": "nonpayable",
      "type": "function"
    },
    {
      "inputs": [
        {
          "internalType": "bytes32",
          "name": "role",
          "type": "bytes32"
        },
        {
          "internalType": "address",
          "name": "account",
          "type": "address"
        }
      ],
      "name": "revokeRole",
      "outputs": [],
      "stateMutability": "nonpayable",
      "type": "function"
    },
    {
      "inputs": [
        {
          "internalType": "bool",
          "name": "_paused",
          "type": "bool"
        }
      ],
      "name": "setPause",
      "outputs": [],
      "stateMutability": "nonpayable",
      "type": "function"
    },
    {
      "inputs": [],
      "name": "totalMinted",
      "outputs": [
        {
          "internalType": "uint256",
          "name": "",
          "type": "uint256"
        }
      ],
      "stateMutability": "view",
      "type": "function",
      "constant": true
    },
    {
      "inputs": [
        {
          "internalType": "address",
          "name": "nftAddress",
          "type": "address"
        }
      ],
      "name": "updateNftContract",
      "outputs": [
        {
          "internalType": "bool",
          "name": "",
          "type": "bool"
        }
      ],
      "stateMutability": "nonpayable",
      "type": "function"
    },
    {
      "stateMutability": "payable",
      "type": "receive",
      "payable": true
    },
    {
      "inputs": [],
      "name": "getMintFee",
      "outputs": [
        {
          "internalType": "uint256",
          "name": "",
          "type": "uint256"
        }
      ],
      "stateMutability": "view",
      "type": "function",
      "constant": true
    },
    {
      "inputs": [
        {
          "internalType": "uint256",
          "name": "newFee",
          "type": "uint256"
        }
      ],
      "name": "setMintFee",
      "outputs": [
        {
          "internalType": "uint256",
          "name": "",
          "type": "uint256"
        }
      ],
      "stateMutability": "nonpayable",
      "type": "function"
    },
    {
      "inputs": [
        {
          "internalType": "uint256",
          "name": "newStartTime",
          "type": "uint256"
        }
      ],
      "name": "setMintStartTime",
      "outputs": [
        {
          "internalType": "uint256",
          "name": "",
          "type": "uint256"
        }
      ],
      "stateMutability": "nonpayable",
      "type": "function"
    },
    {
      "inputs": [
        {
          "internalType": "uint256",
          "name": "_newMaxBatchSize",
          "type": "uint256"
        }
      ],
      "name": "updateMaxBatchSize",
      "outputs": [],
      "stateMutability": "nonpayable",
      "type": "function"
    },
    {
      "inputs": [
        {
          "internalType": "address payable",
          "name": "recipient",
          "type": "address"
        }
      ],
      "name": "mint",
      "outputs": [
        {
          "internalType": "bool",
          "name": "success",
          "type": "bool"
        }
      ],
      "stateMutability": "payable",
      "type": "function",
      "payable": true
    },
    {
      "inputs": [
        {
          "internalType": "address payable",
          "name": "recipient",
          "type": "address"
        },
        {
          "internalType": "uint256",
          "name": "quantity",
          "type": "uint256"
        }
      ],
      "name": "mintBatch",
      "outputs": [
        {
          "internalType": "bool",
          "name": "success",
          "type": "bool"
        }
      ],
      "stateMutability": "payable",
      "type": "function",
      "payable": true
    },
    {
      "inputs": [
        {
          "internalType": "address payable",
          "name": "recipient",
          "type": "address"
        },
        {
          "internalType": "uint256",
          "name": "quantity",
          "type": "uint256"
        }
      ],
      "name": "freeMint",
      "outputs": [
        {
          "internalType": "bool",
          "name": "success",
          "type": "bool"
        }
      ],
      "stateMutability": "nonpayable",
      "type": "function"
    }
  ],
  "bytecode": "0x60806040523480156200001157600080fd5b50604051620043133803806200431383398181016040528101906200003791906200046b565b836200005c6000801b620000506200024860201b60201c565b6200025060201b60201c565b6200009d7f51b355059847d158e68950419dbcd54fad00bdfd0634c2515a5c533288c7f0a2620000916200024860201b60201c565b6200025060201b60201c565b620000ef7fefe866497efea00aa7574b13e86f62ebb584dfdf8dd4654ccc38107eb91840b87f51b355059847d158e68950419dbcd54fad00bdfd0634c2515a5c533288c7f0a26200026660201b60201c565b620001417f9f2df0fed2c77648de5860a4cc508cd0818c85b8b8a1ab4ceeef8d981c8956a67f51b355059847d158e68950419dbcd54fad00bdfd0634c2515a5c533288c7f0a26200026660201b60201c565b6000600160006101000a81548160ff021916908315150217905550806001806101000a81548173ffffffffffffffffffffffffffffffffffffffff021916908373ffffffffffffffffffffffffffffffffffffffff1602179055505060008311620001e3576040517f08c379a0000000000000000000000000000000000000000000000000000000008152600401620001da9062000581565b60405180910390fd5b6000811162000229576040517f08c379a00000000000000000000000000000000000000000000000000000000081526004016200022090620005a3565b60405180910390fd5b8260068190555081600781905550806008819055505050505062000648565b600033905090565b620002628282620002c360201b60201c565b5050565b806200027883620003b460201b60201c565b837fbd79b86ffe0ab8e8776151514217cd7cacd52c909f66475c3af44e129f0b00ff60405160405180910390a480600080848152602001908152602001600020600101819055505050565b620002d58282620003d360201b60201c565b620003b057600160008084815260200190815260200160002060000160008373ffffffffffffffffffffffffffffffffffffffff1673ffffffffffffffffffffffffffffffffffffffff16815260200190815260200160002060006101000a81548160ff021916908315150217905550620003556200024860201b60201c565b73ffffffffffffffffffffffffffffffffffffffff168173ffffffffffffffffffffffffffffffffffffffff16837f2f8788117e7eff1d82e926ec794901d17c78024a50270940304540a733656f0d60405160405180910390a45b5050565b6000806000838152602001908152602001600020600101549050919050565b600080600084815260200190815260200160002060000160008373ffffffffffffffffffffffffffffffffffffffff1673ffffffffffffffffffffffffffffffffffffffff16815260200190815260200160002060009054906101000a900460ff16905092915050565b6000815190506200044e8162000614565b92915050565b60008151905062000465816200062e565b92915050565b600080600080608085870312156200048257600080fd5b600062000492878288016200043d565b9450506020620004a58782880162000454565b9350506040620004b88782880162000454565b9250506060620004cb8782880162000454565b91505092959194509250565b6000620004e6602083620005c5565b91507f436f6c6c656374696f6e3a206d696e7420666565206d757374206265203e20306000830152602082019050919050565b600062000528602283620005c5565b91507f436f6c6c656374696f6e3a2062617463682073697a65206d757374206265203e60008301527f20300000000000000000000000000000000000000000000000000000000000006020830152604082019050919050565b600060208201905081810360008301526200059c81620004d7565b9050919050565b60006020820190508181036000830152620005be8162000519565b9050919050565b600082825260208201905092915050565b6000620005e382620005ea565b9050919050565b600073ffffffffffffffffffffffffffffffffffffffff82169050919050565b6000819050919050565b6200061f81620005d6565b81146200062b57600080fd5b50565b62000639816200060a565b81146200064557600080fd5b50565b613cbb80620006586000396000f3fe60806040526004361061016a5760003560e01c80637a5caab3116100d15780639e942ace1161008a578063bedb86fb11610064578063bedb86fb14610564578063d547741f1461058d578063d5b3621b146105b6578063eddd0d9c146105f357610171565b80639e942ace146104d1578063a2309ff81461050e578063b187bd261461053957610171565b80637a5caab31461039b5780638cb293cf146103c657806391d14854146103ef57806392e67c061461042c578063931e2e49146104695780639883566e1461049457610171565b80632913daa0116101235780632913daa01461029a5780632f2ff15d146102c557806336568abe146102ee5780633ba72cc414610317578063667c99de146103405780636a6278421461036b57610171565b8063031bd4c4146101735780630b94de9c1461019e57806310c4d1d9146101c7578063168e0ce314610204578063248a9ca31461022d578063248b71fc1461026a57610171565b3661017157005b005b34801561017f57600080fd5b50610188610630565b6040516101959190613831565b60405180910390f35b3480156101aa57600080fd5b506101c560048036038101906101c091906125aa565b610636565b005b3480156101d357600080fd5b506101ee60048036038101906101e99190612635565b6107ed565b6040516101fb9190613417565b60405180910390f35b34801561021057600080fd5b5061022b6004803603810190610226919061272d565b610973565b005b34801561023957600080fd5b50610254600480360381019061024f91906126c8565b610a75565b6040516102619190613454565b60405180910390f35b610284600480360381019061027f91906125aa565b610a94565b6040516102919190613439565b60405180910390f35b3480156102a657600080fd5b506102af610e5f565b6040516102bc9190613831565b60405180910390f35b3480156102d157600080fd5b506102ec60048036038101906102e791906126f1565b610e65565b005b3480156102fa57600080fd5b50610315600480360381019061031091906126f1565b610ecb565b005b34801561032357600080fd5b5061033e600480360381019061033991906125e6565b610fb1565b005b34801561034c57600080fd5b506103556110e8565b6040516103629190613373565b60405180910390f35b61038560048036038101906103809190612581565b611110565b6040516103929190613439565b60405180910390f35b3480156103a757600080fd5b506103b06113f5565b6040516103bd9190613831565b60405180910390f35b3480156103d257600080fd5b506103ed60048036038101906103e891906125e6565b6113ff565b005b3480156103fb57600080fd5b50610416600480360381019061041191906126f1565b611593565b6040516104239190613439565b60405180910390f35b34801561043857600080fd5b50610453600480360381019061044e9190612558565b6115fd565b6040516104609190613439565b60405180910390f35b34801561047557600080fd5b5061047e6117b7565b60405161048b9190613831565b60405180910390f35b3480156104a057600080fd5b506104bb60048036038101906104b691906125aa565b6117bd565b6040516104c89190613439565b60405180910390f35b3480156104dd57600080fd5b506104f860048036038101906104f3919061272d565b611acc565b6040516105059190613373565b60405180910390f35b34801561051a57600080fd5b50610523611b09565b6040516105309190613831565b60405180910390f35b34801561054557600080fd5b5061054e611b0f565b60405161055b9190613439565b60405180910390f35b34801561057057600080fd5b5061058b60048036038101906105869190612676565b611b26565b005b34801561059957600080fd5b506105b460048036038101906105af91906126f1565b611ba2565b005b3480156105c257600080fd5b506105dd60048036038101906105d8919061272d565b611c08565b6040516105ea9190613831565b60405180910390f35b3480156105ff57600080fd5b5061061a6004803603810190610615919061272d565b611ccd565b6040516106279190613831565b60405180910390f35b61271081565b61064a6000801b610645611dd8565b611593565b610689576040517f08c379a000000000000000000000000000000000000000000000000000000000815260040161068090613711565b60405180910390fd5b600073ffffffffffffffffffffffffffffffffffffffff168273ffffffffffffffffffffffffffffffffffffffff1614156106f9576040517f08c379a00000000000000000000000000000000000000000000000000000000081526004016106f090613631565b60405180910390fd5b8047101561073c576040517f08c379a000000000000000000000000000000000000000000000000000000000815260040161073390613491565b60405180910390fd5b60008273ffffffffffffffffffffffffffffffffffffffff168260405161076290613310565b60006040518083038185875af1925050503d806000811461079f576040519150601f19603f3d011682016040523d82523d6000602084013e6107a4565b606091505b50509050806107e8576040517f08c379a00000000000000000000000000000000000000000000000000000000081526004016107df90613751565b60405180910390fd5b505050565b60606000825167ffffffffffffffff811115610832577f4e487b7100000000000000000000000000000000000000000000000000000000600052604160045260246000fd5b6040519080825280602002602001820160405280156108605781602001602082028036833780820191505090505b50905060005b835181101561096957600560008583815181106108ac577f4e487b7100000000000000000000000000000000000000000000000000000000600052603260045260246000fd5b6020026020010151815260200190815260200160002060009054906101000a900473ffffffffffffffffffffffffffffffffffffffff1682828151811061091c577f4e487b7100000000000000000000000000000000000000000000000000000000600052603260045260246000fd5b602002602001019073ffffffffffffffffffffffffffffffffffffffff16908173ffffffffffffffffffffffffffffffffffffffff1681525050808061096190613ab5565b915050610866565b5080915050919050565b6109a47f51b355059847d158e68950419dbcd54fad00bdfd0634c2515a5c533288c7f0a261099f611dd8565b611593565b6109e3576040517f08c379a00000000000000000000000000000000000000000000000000000000081526004016109da90613691565b60405180910390fd5b60008111610a26576040517f08c379a0000000000000000000000000000000000000000000000000000000008152600401610a1d906137f1565b60405180910390fd5b600854811415610a6b576040517f08c379a0000000000000000000000000000000000000000000000000000000008152600401610a6290613511565b60405180910390fd5b8060088190555050565b6000806000838152602001908152602001600020600101549050919050565b60006002546127101415610add576040517f08c379a0000000000000000000000000000000000000000000000000000000008152600401610ad4906135b1565b60405180910390fd5b600754421015610b22576040517f08c379a0000000000000000000000000000000000000000000000000000000008152600401610b19906134b1565b60405180910390fd5b600160009054906101000a900460ff1615610b72576040517f08c379a0000000000000000000000000000000000000000000000000000000008152600401610b69906136d1565b60405180910390fd5b82610b9d7fefe866497efea00aa7574b13e86f62ebb584dfdf8dd4654ccc38107eb91840b882611593565b15610bdd576040517f08c379a0000000000000000000000000000000000000000000000000000000008152600401610bd4906134d1565b60405180910390fd5b60008311610c20576040517f08c379a0000000000000000000000000000000000000000000000000000000008152600401610c1790613771565b60405180910390fd5b600854831115610c65576040517f08c379a0000000000000000000000000000000000000000000000000000000008152600401610c5c90613531565b60405180910390fd5b600073ffffffffffffffffffffffffffffffffffffffff168473ffffffffffffffffffffffffffffffffffffffff161415610cd5576040517f08c379a0000000000000000000000000000000000000000000000000000000008152600401610ccc90613671565b60405180910390fd5b82600254612710610ce691906139ea565b1015610cff57600254612710610cfc91906139ea565b92505b6000610d1684600654611de090919063ffffffff16565b905080341015610d5b576040517f08c379a0000000000000000000000000000000000000000000000000000000008152600401610d5290613591565b60405180910390fd5b60005b84811015610d8357610d6f86611e5b565b508080610d7b90613ab5565b915050610d5e565b5080341115610e53576000610d96611dd8565b73ffffffffffffffffffffffffffffffffffffffff16610dbf833461202090919063ffffffff16565b604051610dcb90613310565b60006040518083038185875af1925050503d8060008114610e08576040519150601f19603f3d011682016040523d82523d6000602084013e610e0d565b606091505b5050905080610e51576040517f08c379a0000000000000000000000000000000000000000000000000000000008152600401610e48906136b1565b60405180910390fd5b505b60019250505092915050565b60085481565b610e7e610e7183610a75565b610e79611dd8565b611593565b610ebd576040517f08c379a0000000000000000000000000000000000000000000000000000000008152600401610eb4906134f1565b60405180910390fd5b610ec7828261206a565b5050565b610ed3611dd8565b73ffffffffffffffffffffffffffffffffffffffff168173ffffffffffffffffffffffffffffffffffffffff1614610f40576040517f08c379a0000000000000000000000000000000000000000000000000000000008152600401610f3790613811565b60405180910390fd5b7fcf9a83c51c2d3539180a23c4f68d150790a501e91d0ff1efc5f24718a3043d90821415610fa3576040517f08c379a0000000000000000000000000000000000000000000000000000000008152600401610f9a90613791565b60405180910390fd5b610fad828261214a565b5050565b610fc56000801b610fc0611dd8565b611593565b611004576040517f08c379a0000000000000000000000000000000000000000000000000000000008152600401610ffb90613711565b60405180910390fd5b600073ffffffffffffffffffffffffffffffffffffffff168373ffffffffffffffffffffffffffffffffffffffff161415611074576040517f08c379a000000000000000000000000000000000000000000000000000000000815260040161106b90613631565b60405180910390fd5b8073ffffffffffffffffffffffffffffffffffffffff166323b872dd3085856040518463ffffffff1660e01b81526004016110b19392919061338e565b600060405180830381600087803b1580156110cb57600080fd5b505af11580156110df573d6000803e3d6000fd5b50505050505050565b600060018054906101000a900473ffffffffffffffffffffffffffffffffffffffff16905090565b60006002546127101415611159576040517f08c379a0000000000000000000000000000000000000000000000000000000008152600401611150906135b1565b60405180910390fd5b60075442101561119e576040517f08c379a0000000000000000000000000000000000000000000000000000000008152600401611195906134b1565b60405180910390fd5b600160009054906101000a900460ff16156111ee576040517f08c379a00000000000000000000000000000000000000000000000000000000081526004016111e5906136d1565b60405180910390fd5b816112197fefe866497efea00aa7574b13e86f62ebb584dfdf8dd4654ccc38107eb91840b882611593565b15611259576040517f08c379a0000000000000000000000000000000000000000000000000000000008152600401611250906134d1565b60405180910390fd5b600073ffffffffffffffffffffffffffffffffffffffff168373ffffffffffffffffffffffffffffffffffffffff1614156112c9576040517f08c379a00000000000000000000000000000000000000000000000000000000081526004016112c090613671565b60405180910390fd5b60065434101561130e576040517f08c379a000000000000000000000000000000000000000000000000000000000815260040161130590613591565b60405180910390fd5b61131783611e5b565b506006543411156113eb57600061132c611dd8565b73ffffffffffffffffffffffffffffffffffffffff166113576006543461202090919063ffffffff16565b60405161136390613310565b60006040518083038185875af1925050503d80600081146113a0576040519150601f19603f3d011682016040523d82523d6000602084013e6113a5565b606091505b50509050806113e9576040517f08c379a00000000000000000000000000000000000000000000000000000000081526004016113e0906136b1565b60405180910390fd5b505b6001915050919050565b6000600654905090565b6114136000801b61140e611dd8565b611593565b611452576040517f08c379a000000000000000000000000000000000000000000000000000000000815260040161144990613711565b60405180910390fd5b600073ffffffffffffffffffffffffffffffffffffffff168373ffffffffffffffffffffffffffffffffffffffff1614156114c2576040517f08c379a00000000000000000000000000000000000000000000000000000000081526004016114b990613631565b60405180910390fd5b8073ffffffffffffffffffffffffffffffffffffffff1663a9059cbb84846040518363ffffffff1660e01b81526004016114fd9291906133ee565b602060405180830381600087803b15801561151757600080fd5b505af115801561152b573d6000803e3d6000fd5b505050506040513d601f19601f8201168201806040525081019061154f919061269f565b61158e576040517f08c379a0000000000000000000000000000000000000000000000000000000008152600401611585906137b1565b60405180910390fd5b505050565b600080600084815260200190815260200160002060000160008373ffffffffffffffffffffffffffffffffffffffff1673ffffffffffffffffffffffffffffffffffffffff16815260200190815260200160002060009054906101000a900460ff16905092915050565b60006116307f51b355059847d158e68950419dbcd54fad00bdfd0634c2515a5c533288c7f0a261162b611dd8565b611593565b61166f576040517f08c379a000000000000000000000000000000000000000000000000000000000815260040161166690613691565b60405180910390fd5b600073ffffffffffffffffffffffffffffffffffffffff168273ffffffffffffffffffffffffffffffffffffffff1614156116df576040517f08c379a00000000000000000000000000000000000000000000000000000000081526004016116d6906135f1565b60405180910390fd5b60018054906101000a900473ffffffffffffffffffffffffffffffffffffffff1673ffffffffffffffffffffffffffffffffffffffff168273ffffffffffffffffffffffffffffffffffffffff16141561176e576040517f08c379a000000000000000000000000000000000000000000000000000000000815260040161176590613571565b60405180910390fd5b816001806101000a81548173ffffffffffffffffffffffffffffffffffffffff021916908373ffffffffffffffffffffffffffffffffffffffff16021790555060019050919050565b60075481565b60006002546127101415611806576040517f08c379a00000000000000000000000000000000000000000000000000000000081526004016117fd906135b1565b60405180910390fd5b60075442101561184b576040517f08c379a0000000000000000000000000000000000000000000000000000000008152600401611842906134b1565b60405180910390fd5b600160009054906101000a900460ff161561189b576040517f08c379a0000000000000000000000000000000000000000000000000000000008152600401611892906136d1565b60405180910390fd5b6118cc7f9f2df0fed2c77648de5860a4cc508cd0818c85b8b8a1ab4ceeef8d981c8956a66118c7611dd8565b611593565b61190b576040517f08c379a0000000000000000000000000000000000000000000000000000000008152600401611902906137d1565b60405180910390fd5b826119367fefe866497efea00aa7574b13e86f62ebb584dfdf8dd4654ccc38107eb91840b882611593565b15611976576040517f08c379a000000000000000000000000000000000000000000000000000000000815260040161196d906134d1565b60405180910390fd5b600083116119b9576040517f08c379a00000000000000000000000000000000000000000000000000000000081526004016119b090613771565b60405180910390fd5b6008548311156119fe576040517f08c379a00000000000000000000000000000000000000000000000000000000081526004016119f590613531565b60405180910390fd5b600073ffffffffffffffffffffffffffffffffffffffff168473ffffffffffffffffffffffffffffffffffffffff161415611a6e576040517f08c379a0000000000000000000000000000000000000000000000000000000008152600401611a6590613671565b60405180910390fd5b82600254612710611a7f91906139ea565b1015611a9857600254612710611a9591906139ea565b92505b60005b83811015611ac057611aac85611e5b565b508080611ab890613ab5565b915050611a9b565b50600191505092915050565b60006005600083815260200190815260200160002060009054906101000a900473ffffffffffffffffffffffffffffffffffffffff169050919050565b60025481565b6000600160009054906101000a900460ff16905090565b611b577f51b355059847d158e68950419dbcd54fad00bdfd0634c2515a5c533288c7f0a2611b52611dd8565b611593565b611b96576040517f08c379a0000000000000000000000000000000000000000000000000000000008152600401611b8d90613691565b60405180910390fd5b611b9f8161222b565b50565b611bbb611bae83610a75565b611bb6611dd8565b611593565b611bfa576040517f08c379a0000000000000000000000000000000000000000000000000000000008152600401611bf190613611565b60405180910390fd5b611c04828261214a565b5050565b6000611c3b7f51b355059847d158e68950419dbcd54fad00bdfd0634c2515a5c533288c7f0a2611c36611dd8565b611593565b611c7a576040517f08c379a0000000000000000000000000000000000000000000000000000000008152600401611c7190613691565b60405180910390fd5b428211611cbc576040517f08c379a0000000000000000000000000000000000000000000000000000000008152600401611cb390613651565b60405180910390fd5b816007819055506007549050919050565b6000611d007f51b355059847d158e68950419dbcd54fad00bdfd0634c2515a5c533288c7f0a2611cfb611dd8565b611593565b611d3f576040517f08c379a0000000000000000000000000000000000000000000000000000000008152600401611d3690613691565b60405180910390fd5b60008211611d82576040517f08c379a0000000000000000000000000000000000000000000000000000000008152600401611d7990613731565b60405180910390fd5b600654821415611dc7576040517f08c379a0000000000000000000000000000000000000000000000000000000008152600401611dbe90613551565b60405180910390fd5b816006819055506006549050919050565b600033905090565b600080831415611df35760009050611e55565b60008284611e019190613990565b9050828482611e10919061395f565b14611e50576040517f08c379a0000000000000000000000000000000000000000000000000000000008152600401611e47906136f1565b60405180910390fd5b809150505b92915050565b600061271060025410611ea3576040517f08c379a0000000000000000000000000000000000000000000000000000000008152600401611e9a906135d1565b60405180910390fd5b6000611ead612288565b9050600160026000828254611ec29190613909565b92505081905550826005600083815260200190815260200160002060006101000a81548173ffffffffffffffffffffffffffffffffffffffff021916908373ffffffffffffffffffffffffffffffffffffffff16021790555060018054906101000a900473ffffffffffffffffffffffffffffffffffffffff1673ffffffffffffffffffffffffffffffffffffffff1663a144819484836040518363ffffffff1660e01b8152600401611f769291906133ee565b602060405180830381600087803b158015611f9057600080fd5b505af1158015611fa4573d6000803e3d6000fd5b505050506040513d601f19601f82011682018060405250810190611fc89190612756565b508273ffffffffffffffffffffffffffffffffffffffff167f52277f0b4a9b555c5aa96900a13546f972bda413737ec164aac947c87eec60248260405161200f9190613831565b60405180910390a280915050919050565b600061206283836040518060400160405280601e81526020017f536166654d6174683a207375627472616374696f6e206f766572666c6f7700008152506123cb565b905092915050565b6120748282611593565b61214657600160008084815260200190815260200160002060000160008373ffffffffffffffffffffffffffffffffffffffff1673ffffffffffffffffffffffffffffffffffffffff16815260200190815260200160002060006101000a81548160ff0219169083151502179055506120eb611dd8565b73ffffffffffffffffffffffffffffffffffffffff168173ffffffffffffffffffffffffffffffffffffffff16837f2f8788117e7eff1d82e926ec794901d17c78024a50270940304540a733656f0d60405160405180910390a45b5050565b6121548282611593565b1561222757600080600084815260200190815260200160002060000160008373ffffffffffffffffffffffffffffffffffffffff1673ffffffffffffffffffffffffffffffffffffffff16815260200190815260200160002060006101000a81548160ff0219169083151502179055506121cc611dd8565b73ffffffffffffffffffffffffffffffffffffffff168173ffffffffffffffffffffffffffffffffffffffff16837ff6391f5c32d9c69d2a47ea670b442974b53935d1edc7fd64eb21e047a839171b60405160405180910390a45b5050565b80600160006101000a81548160ff0219169083151502179055507fe8699cf681560fd07de85543bd994263f4557bdc5179dd702f256d15fd083e1d61226e611dd8565b8260405161227d9291906133c5565b60405180910390a150565b60008060025461271061229b91906139ea565b90506000816003546122ab611dd8565b4340426040516020016122c19493929190613325565b6040516020818303038152906040528051906020012060001c6122e49190613b36565b905060008060046000848152602001908152602001600020541461231d5760046000838152602001908152602001600020549050612321565b8190505b60006004600060018661233491906139ea565b81526020019081526020016000205414156123725760018361235691906139ea565b60046000848152602001908152602001600020819055506123aa565b6004600060018561238391906139ea565b81526020019081526020016000205460046000848152602001908152602001600020819055505b600360008154809291906123bd90613ab5565b919050555080935050505090565b6000838311158290612413576040517f08c379a000000000000000000000000000000000000000000000000000000000815260040161240a919061346f565b60405180910390fd5b506000838561242291906139ea565b9050809150509392505050565b600061244261243d8461387d565b61384c565b9050808382526020820190508285602086028201111561246157600080fd5b60005b858110156124915781612477888261252e565b845260208401935060208301925050600181019050612464565b5050509392505050565b6000813590506124aa81613c12565b92915050565b6000813590506124bf81613c29565b92915050565b600082601f8301126124d657600080fd5b81356124e684826020860161242f565b91505092915050565b6000813590506124fe81613c40565b92915050565b60008151905061251381613c40565b92915050565b60008135905061252881613c57565b92915050565b60008135905061253d81613c6e565b92915050565b60008151905061255281613c6e565b92915050565b60006020828403121561256a57600080fd5b60006125788482850161249b565b91505092915050565b60006020828403121561259357600080fd5b60006125a1848285016124b0565b91505092915050565b600080604083850312156125bd57600080fd5b60006125cb858286016124b0565b92505060206125dc8582860161252e565b9150509250929050565b6000806000606084860312156125fb57600080fd5b60006126098682870161249b565b935050602061261a8682870161252e565b925050604061262b8682870161249b565b9150509250925092565b60006020828403121561264757600080fd5b600082013567ffffffffffffffff81111561266157600080fd5b61266d848285016124c5565b91505092915050565b60006020828403121561268857600080fd5b6000612696848285016124ef565b91505092915050565b6000602082840312156126b157600080fd5b60006126bf84828501612504565b91505092915050565b6000602082840312156126da57600080fd5b60006126e884828501612519565b91505092915050565b6000806040838503121561270457600080fd5b600061271285828601612519565b92505060206127238582860161249b565b9150509250929050565b60006020828403121561273f57600080fd5b600061274d8482850161252e565b91505092915050565b60006020828403121561276857600080fd5b600061277684828501612543565b91505092915050565b600061278b8383612797565b60208301905092915050565b6127a081613a1e565b82525050565b6127af81613a1e565b82525050565b6127c66127c182613a1e565b613afe565b82525050565b60006127d7826138b9565b6127e181856138dc565b93506127ec836138a9565b8060005b8381101561281d578151612804888261277f565b975061280f836138cf565b9250506001810190506127f0565b5085935050505092915050565b61283381613a42565b82525050565b61284281613a4e565b82525050565b61285961285482613a4e565b613b10565b82525050565b600061286a826138c4565b61287481856138f8565b9350612884818560208601613a82565b61288d81613bf4565b840191505092915050565b60006128a5602a836138f8565b91507f456d657267656e6379436f6e74726f6c3a20496e73756666696369656e74204560008301527f54482062616c616e6365000000000000000000000000000000000000000000006020830152604082019050919050565b600061290b6024836138f8565b91507f436f6c6c656374696f6e203a204d696e74696e67206e6f74207374617274656460008301527f20796574000000000000000000000000000000000000000000000000000000006020830152604082019050919050565b60006129716027836138f8565b91507f416363657373436f6e74726f6c3a206163636f756e742068617320626c6f636b60008301527f656420726f6c65000000000000000000000000000000000000000000000000006020830152604082019050919050565b60006129d7602f836138f8565b91507f416363657373436f6e74726f6c3a2073656e646572206d75737420626520616e60008301527f2061646d696e20746f206772616e7400000000000000000000000000000000006020830152604082019050919050565b6000612a3d6021836138f8565b91507f436f6c6c656374696f6e3a2073616d652061732063757272656e742076616c7560008301527f65000000000000000000000000000000000000000000000000000000000000006020830152604082019050919050565b6000612aa3601f836138f8565b91507f436f6c6c656374696f6e3a2065786365656473206261746368206c696d6974006000830152602082019050919050565b6000612ae3601f836138f8565b91507f436f6c6c656374696f6e3a2053616d652061732063757272656e7420666565006000830152602082019050919050565b6000612b236022836138f8565b91507f4d696e743a2073616d652061732063757272656e74206e667420636f6e74726160008301527f63740000000000000000000000000000000000000000000000000000000000006020830152604082019050919050565b6000612b896026836138f8565b91507f436f6c6c656374696f6e3a20496e73756666696369656e74206665657320707260008301527f6f766964656400000000000000000000000000000000000000000000000000006020830152604082019050919050565b6000612bef601d836138f8565b91507f436f6c6c656374696f6e3a206d696e74696e6720636f6d706c657465640000006000830152602082019050919050565b6000612c2f6029836138f8565b91507f4d696e743a20416c6c20746f6b656e73206861766520616c726561647920626560008301527f656e206d696e74656400000000000000000000000000000000000000000000006020830152604082019050919050565b6000612c956021836138f8565b91507f4d696e743a206163636f756e7420697320746865207a65726f2061646472657360008301527f73000000000000000000000000000000000000000000000000000000000000006020830152604082019050919050565b6000612cfb6030836138f8565b91507f416363657373436f6e74726f6c3a2073656e646572206d75737420626520616e60008301527f2061646d696e20746f207265766f6b65000000000000000000000000000000006020830152604082019050919050565b6000612d61601e836138f8565b91507f456d657267656e6379436f6e74726f6c3a207a65726f206164647265737300006000830152602082019050919050565b6000612da1602c836138f8565b91507f436f6c6c656374696f6e3a2053746172742074696d65206d757374206265206960008301527f6e207468652066757475726500000000000000000000000000000000000000006020830152604082019050919050565b6000612e076030836138f8565b91507f436f6c6c656374696f6e3a20526563697069656e742063616e6e6f742062652060008301527f746865207a65726f2061646472657373000000000000000000000000000000006020830152604082019050919050565b6000612e6d6013836138f8565b91507f416363657373436f6e74726f6c3a2021446576000000000000000000000000006000830152602082019050919050565b6000612ead6022836138f8565b91507f436f6c6c656374696f6e3a20526566756e64207472616e73666572206661696c60008301527f65640000000000000000000000000000000000000000000000000000000000006020830152604082019050919050565b6000612f13601c836138f8565b91507f5061757361626c653a20636f6e747261637420697320706175736564000000006000830152602082019050919050565b6000612f536021836138f8565b91507f536166654d6174683a206d756c7469706c69636174696f6e206f766572666c6f60008301527f77000000000000000000000000000000000000000000000000000000000000006020830152604082019050919050565b6000612fb96015836138f8565b91507f416363657373436f6e74726f6c3a20214f776e657200000000000000000000006000830152602082019050919050565b6000612ff96029836138f8565b91507f436f6c6c656374696f6e3a20466565206d75737420626520677265617465722060008301527f7468616e207a65726f00000000000000000000000000000000000000000000006020830152604082019050919050565b600061305f6025836138f8565b91507f456d657267656e6379436f6e74726f6c3a20455448207472616e73666572206660008301527f61696c65640000000000000000000000000000000000000000000000000000006020830152604082019050919050565b60006130c56000836138ed565b9150600082019050919050565b60006130df6020836138f8565b91507f436f6c6c656374696f6e3a206d757374206d696e74206174206c6561737420316000830152602082019050919050565b600061311f6028836138f8565b91507f416363657373436f6e74726f6c3a20726f6c652063616e206e6f74206265207260008301527f656e6f756e6365640000000000000000000000000000000000000000000000006020830152604082019050919050565b60006131856027836138f8565b91507f456d657267656e6379436f6e74726f6c3a204552433230207472616e7366657260008301527f206661696c6564000000000000000000000000000000000000000000000000006020830152604082019050919050565b60006131eb6016836138f8565b91507f416363657373436f6e74726f6c3a20214d696e746572000000000000000000006000830152602082019050919050565b600061322b6022836138f8565b91507f436f6c6c656374696f6e3a2062617463682073697a65206d757374206265203e60008301527f20300000000000000000000000000000000000000000000000000000000000006020830152604082019050919050565b6000613291602f836138f8565b91507f416363657373436f6e74726f6c3a2063616e206f6e6c792072656e6f756e636560008301527f20726f6c657320666f722073656c6600000000000000000000000000000000006020830152604082019050919050565b6132f381613a78565b82525050565b61330a61330582613a78565b613b2c565b82525050565b600061331b826130b8565b9150819050919050565b600061333182876132f9565b60208201915061334182866127b5565b6014820191506133518285612848565b60208201915061336182846132f9565b60208201915081905095945050505050565b600060208201905061338860008301846127a6565b92915050565b60006060820190506133a360008301866127a6565b6133b060208301856127a6565b6133bd60408301846132ea565b949350505050565b60006040820190506133da60008301856127a6565b6133e7602083018461282a565b9392505050565b600060408201905061340360008301856127a6565b61341060208301846132ea565b9392505050565b6000602082019050818103600083015261343181846127cc565b905092915050565b600060208201905061344e600083018461282a565b92915050565b60006020820190506134696000830184612839565b92915050565b60006020820190508181036000830152613489818461285f565b905092915050565b600060208201905081810360008301526134aa81612898565b9050919050565b600060208201905081810360008301526134ca816128fe565b9050919050565b600060208201905081810360008301526134ea81612964565b9050919050565b6000602082019050818103600083015261350a816129ca565b9050919050565b6000602082019050818103600083015261352a81612a30565b9050919050565b6000602082019050818103600083015261354a81612a96565b9050919050565b6000602082019050818103600083015261356a81612ad6565b9050919050565b6000602082019050818103600083015261358a81612b16565b9050919050565b600060208201905081810360008301526135aa81612b7c565b9050919050565b600060208201905081810360008301526135ca81612be2565b9050919050565b600060208201905081810360008301526135ea81612c22565b9050919050565b6000602082019050818103600083015261360a81612c88565b9050919050565b6000602082019050818103600083015261362a81612cee565b9050919050565b6000602082019050818103600083015261364a81612d54565b9050919050565b6000602082019050818103600083015261366a81612d94565b9050919050565b6000602082019050818103600083015261368a81612dfa565b9050919050565b600060208201905081810360008301526136aa81612e60565b9050919050565b600060208201905081810360008301526136ca81612ea0565b9050919050565b600060208201905081810360008301526136ea81612f06565b9050919050565b6000602082019050818103600083015261370a81612f46565b9050919050565b6000602082019050818103600083015261372a81612fac565b9050919050565b6000602082019050818103600083015261374a81612fec565b9050919050565b6000602082019050818103600083015261376a81613052565b9050919050565b6000602082019050818103600083015261378a816130d2565b9050919050565b600060208201905081810360008301526137aa81613112565b9050919050565b600060208201905081810360008301526137ca81613178565b9050919050565b600060208201905081810360008301526137ea816131de565b9050919050565b6000602082019050818103600083015261380a8161321e565b9050919050565b6000602082019050818103600083015261382a81613284565b9050919050565b600060208201905061384660008301846132ea565b92915050565b6000604051905081810181811067ffffffffffffffff8211171561387357613872613bc5565b5b8060405250919050565b600067ffffffffffffffff82111561389857613897613bc5565b5b602082029050602081019050919050565b6000819050602082019050919050565b600081519050919050565b600081519050919050565b6000602082019050919050565b600082825260208201905092915050565b600081905092915050565b600082825260208201905092915050565b600061391482613a78565b915061391f83613a78565b9250827fffffffffffffffffffffffffffffffffffffffffffffffffffffffffffffffff0382111561395457613953613b67565b5b828201905092915050565b600061396a82613a78565b915061397583613a78565b92508261398557613984613b96565b5b828204905092915050565b600061399b82613a78565b91506139a683613a78565b9250817fffffffffffffffffffffffffffffffffffffffffffffffffffffffffffffffff04831182151516156139df576139de613b67565b5b828202905092915050565b60006139f582613a78565b9150613a0083613a78565b925082821015613a1357613a12613b67565b5b828203905092915050565b6000613a2982613a58565b9050919050565b6000613a3b82613a58565b9050919050565b60008115159050919050565b6000819050919050565b600073ffffffffffffffffffffffffffffffffffffffff82169050919050565b6000819050919050565b60005b83811015613aa0578082015181840152602081019050613a85565b83811115613aaf576000848401525b50505050565b6000613ac082613a78565b91507fffffffffffffffffffffffffffffffffffffffffffffffffffffffffffffffff821415613af357613af2613b67565b5b600182019050919050565b6000613b0982613b1a565b9050919050565b6000819050919050565b6000613b2582613c05565b9050919050565b6000819050919050565b6000613b4182613a78565b9150613b4c83613a78565b925082613b5c57613b5b613b96565b5b828206905092915050565b7f4e487b7100000000000000000000000000000000000000000000000000000000600052601160045260246000fd5b7f4e487b7100000000000000000000000000000000000000000000000000000000600052601260045260246000fd5b7f4e487b7100000000000000000000000000000000000000000000000000000000600052604160045260246000fd5b6000601f19601f8301169050919050565b60008160601b9050919050565b613c1b81613a1e565b8114613c2657600080fd5b50565b613c3281613a30565b8114613c3d57600080fd5b50565b613c4981613a42565b8114613c5457600080fd5b50565b613c6081613a4e565b8114613c6b57600080fd5b50565b613c7781613a78565b8114613c8257600080fd5b5056fea26469706673582212205a8045c962160d8bb9843d76ee4a85b51653764064360c08571e242a5121e07c64736f6c63430008000033",
  "immutableReferences": {},
  "source": "// SPDX-License-Identifier: GPL-3.0-or-later\r\n\r\npragma solidity ^0.8.0;\r\n\r\nimport \"./safeMath.sol\";\r\nimport \"./roleMember.sol\";\r\n\r\n\r\nabstract contract Mint is EmergencyControl{\r\n\r\n   using SafeMath for uint256;\r\n   IERC721 nftContract;\r\n\r\n   uint256 public constant TOKEN_LIMIT = 10000; // number of token to be minted\r\n\r\n   uint256 public totalMinted;\r\n   uint256 private randomNonce;\r\n   \r\n   mapping(uint256 => uint256) private availableTokenIndices;\r\n   mapping ( uint256 => address) private tokenMinters;\r\n\r\n  /**\r\n   * @dev Emitted when a new NFT is minted.\r\n   *\r\n   * `account` is the address that received the minted NFT.\r\n   * `tokenId` is the unique identifier of the newly minted token.\r\n   */\r\n   event NewMint(address indexed account,uint256 tokenId);\r\n\r\n\r\n   constructor (address nftAddress) {\r\n      nftContract = IERC721(nftAddress);\r\n   }\r\n\r\n  /**\r\n   * @dev Returns the contract address of the current NFT instance.\r\n   */\r\n   function getNftContract() public view returns (address){\r\n     return address(nftContract);\r\n   }\r\n\r\n  /**\r\n   * @dev Updates the NFT contract address.\r\n   * Can only be called by an account with the Dev role.\r\n   *\r\n   * Requirements:\r\n   * - `nftAddress` cannot be the zero address.\r\n   * - `nftAddress` must be different from the current NFT contract address.\r\n   *\r\n   * @param nftAddress The new NFT contract address.\r\n   * @return bool Returns true if the update is successful.\r\n */\r\n   function updateNftContract(address nftAddress) public isDev returns (bool){\r\n     require(nftAddress != address(0),\"Mint: account is the zero address\");\r\n     require(nftAddress != address(nftContract),\"Mint: same as current nft contract\");\r\n     nftContract = IERC721(nftAddress);\r\n     return true;\r\n   }\r\n\r\n  /**\r\n   * @dev Returns the address that minted a given token ID.\r\n   * @param tokenId The ID of the token.\r\n   * @return The address of the minter.\r\n   */\r\n   function minterOf(uint tokenId) public view returns (address){\r\n     return tokenMinters[tokenId];\r\n   }\r\n\r\n  /**\r\n   * @dev Returns the addresses that minted a list of token IDs.\r\n   * @param tokenIds An array of token IDs.\r\n   * @return An array of addresses corresponding to each token's minter.\r\n   */\r\n   function mintersOf(uint256 [] memory tokenIds) public view returns (address [] memory){\r\n      address[] memory minters = new address[](tokenIds.length);\r\n\r\n      for (uint256 i = 0; i < tokenIds.length; i++) {\r\n         minters[i] = tokenMinters[tokenIds[i]];\r\n      }\r\n      return minters;\r\n   }\r\n\r\n\r\n  /**\r\n   * @dev Generates a pseudo-random index for minting an NFT.\r\n   * This ensures that each minted token gets a unique index without repetition.\r\n   *\r\n   * Mechanism:\r\n   * - Selects a random index from the range of unminted tokens.\r\n   * - Uses `availableTokenIndices` to track which positions are already taken.\r\n   * - Swaps the chosen position with the last available one to prevent reuse.\r\n   *\r\n   * @return uint256 The generated random index.\r\n   */\r\n   function randomIndex() private returns (uint256) {\r\n      uint256 unmintedSize = TOKEN_LIMIT - totalMinted;\r\n\r\n      // Generate pseudo-random number based on nonce, sender, blockhash, and timestamp\r\n      uint256 index = uint256(\r\n         keccak256(\r\n               abi.encodePacked(\r\n                  randomNonce,\r\n                  _msgSender(),\r\n                  blockhash(block.number),\r\n                  block.timestamp\r\n               )\r\n         )\r\n      ) % unmintedSize;\r\n\r\n      uint256 value = 0;   \r\n\r\n      if (availableTokenIndices[index] != 0) {\r\n         value = availableTokenIndices[index];\r\n      } else {\r\n         value = index;\r\n      }\r\n\r\n      // Move the last available value into the selected slot\r\n      if (availableTokenIndices[unmintedSize - 1] == 0) {\r\n         // Array position not initialized, so use position\r\n         availableTokenIndices[index] = unmintedSize - 1;\r\n      } else {\r\n         // Array position holds a value so use that\r\n         availableTokenIndices[index] = availableTokenIndices[unmintedSize - 1];\r\n      }\r\n      \r\n      randomNonce++;\r\n      return value;\r\n   }\r\n\r\n  /**\r\n   * @dev Internal function to mint a new NFT to the given `recipient`.\r\n   * \r\n   * - Ensures the total minted count does not exceed `TOKEN_LIMIT`.\r\n   * - Generates a pseudo-random unique token ID using `randomIndex()`.\r\n   * - Records the recipient address as the minter of the token.\r\n   * - Mints the NFT via the external NFT contract.\r\n   * - Emits a {NewMint} event.\r\n   *\r\n   * @param recipient The address that will receive the newly minted NFT.\r\n   * @return uint256 The ID of the minted NFT.\r\n   */\r\n   function _mint(address recipient) internal returns (uint256) {\r\n      require(totalMinted < TOKEN_LIMIT, \"Mint: All tokens have already been minted\");\r\n\r\n      uint256 tokenId = randomIndex();\r\n\r\n      totalMinted += 1;\r\n      tokenMinters[tokenId] = recipient;\r\n\r\n      nftContract.safeMint(recipient, tokenId);\r\n      emit NewMint(recipient, tokenId);\r\n\r\n      return tokenId;\r\n   }\r\n\r\n}\r\n\r\n\r\n contract MintController is Context,Mint{\r\n   using SafeMath for uint256;\r\n\r\n   uint256 private mintFee;\r\n   uint256 public mintStartTime;\r\n   uint256 public maxBatchSize;\r\n\r\n\r\n   constructor(address nftAddress, uint256 _mintFee, uint256 _mintStartTime, uint256 _maxBatchSize) \r\n   Mint(nftAddress)\r\n   {\r\n      require(_mintFee > 0, \"Collection: mint fee must be > 0\");\r\n      require(_maxBatchSize > 0, \"Collection: batch size must be > 0\");\r\n\r\n      mintFee = _mintFee;\r\n      mintStartTime = _mintStartTime;\r\n      maxBatchSize = _maxBatchSize;\r\n   }\r\n\r\n    modifier canMint() {\r\n      require(TOKEN_LIMIT != totalMinted,\"Collection: minting completed\");\r\n      require(block.timestamp >= mintStartTime,\"Collection : Minting not started yet\");\r\n      _;\r\n    }\r\n\r\n  /**\r\n   * @notice Returns the current minting fee in wei.\r\n   * @return Current minting fee.\r\n   */\r\n   function getMintFee() external view returns (uint256) {\r\n      return mintFee;\r\n   }\r\n\r\n  /**\r\n   * @notice Updates the minting fee.\r\n   * @dev Can only be called by a developer.\r\n   * @param newFee New minting fee in wei. Must be greater than 0 and different from the current value.\r\n   */\r\n   function setMintFee(uint256 newFee) external isDev returns (uint256) {\r\n      require(newFee > 0, \"Collection: Fee must be greater than zero\");\r\n      require(newFee != mintFee, \"Collection: Same as current fee\");\r\n      mintFee = newFee;\r\n      return mintFee;\r\n   }\r\n\r\n  /**\r\n   * @notice Updates the mint start time.\r\n   * @dev Can only be called by a developer.\r\n   * @param newStartTime Unix timestamp when minting should start. Must be in the future.\r\n   */\r\n   function setMintStartTime(uint256 newStartTime) external isDev returns (uint256) {\r\n      require(newStartTime > block.timestamp, \"Collection: Start time must be in the future\");\r\n      mintStartTime = newStartTime;\r\n      return mintStartTime;\r\n   }\r\n\r\n  /**\r\n   * @notice Updates the maximum mint batch size.\r\n   * @dev Can only be called by a developer.\r\n   * @param _newMaxBatchSize New maximum number of tokens per batch.\r\n   */\r\n   function updateMaxBatchSize(uint256 _newMaxBatchSize) external isDev {\r\n      require(_newMaxBatchSize > 0, \"Collection: batch size must be > 0\");\r\n      require(_newMaxBatchSize != maxBatchSize, \"Collection: same as current value\");\r\n      maxBatchSize = _newMaxBatchSize;\r\n   }\r\n\r\n\r\n  /**\r\n   * @dev Mints a single token to the specified recipient in exchange for the required minting fee.\r\n   *\r\n   * Requirements:\r\n   * - The contract must not be paused.\r\n   * - Minting must be allowed (per `canMint`).\r\n   * - The `recipient` must not have the blocked role.\r\n   * - `recipient` cannot be the zero address.\r\n   * - `msg.value` must be at least `mintFee`.\r\n   *\r\n   * Effects:\r\n   * - Transfers the minted token to `recipient`.\r\n   * - Refunds any excess ETH sent above `mintFee` back to the caller.\r\n   *\r\n   * @param recipient The address to receive the minted token.\r\n   * @return success A boolean indicating whether the mint operation was successful.\r\n   */\r\n   function mint(address payable recipient)\r\n      public\r\n      payable\r\n      canMint\r\n      isNotPaused\r\n      notBlocked(recipient) \r\n      returns (bool success)\r\n   {\r\n      require(recipient != address(0), \"Collection: Recipient cannot be the zero address\");\r\n      require(msg.value >= mintFee, \"Collection: Insufficient fees provided\");\r\n\r\n      _mint(recipient);\r\n\r\n      // Refund excess ETH if any\r\n      if (msg.value > mintFee) {\r\n         (bool sent, ) = payable(_msgSender()).call{value: msg.value.sub(mintFee)}(\"\");\r\n         require(sent, \"Collection: Refund transfer failed\");\r\n      }\r\n\r\n      return true;\r\n   }\r\n\r\n  /**\r\n   * @dev Mints multiple tokens to the specified recipient in a single transaction, \r\n   *      in exchange for the required batch minting fees.\r\n   *\r\n   * Requirements:\r\n   * - The contract must not be paused.\r\n   * - Minting must be allowed (per `canMint`).\r\n   * - The `recipient` must not have the blocked role.\r\n   * - `recipient` cannot be the zero address.\r\n   * - `quantity` must not exceed `MAX_BATCH`.\r\n   * - `msg.value` must be at least `mintFee * quantity`.\r\n   *\r\n   * Notes:\r\n   * - If the requested `quantity` exceeds the remaining supply, it is adjusted to the available amount.\r\n   *\r\n   * Effects:\r\n   * - Transfers the specified number of minted tokens (adjusted if necessary) to `recipient`.\r\n   * - Refunds any excess ETH sent above the total required fee back to the caller.\r\n   *\r\n   * @param recipient The address to receive the minted tokens.\r\n   * @param quantity The number of tokens to mint in this batch.\r\n   * @return success A boolean indicating whether the batch mint operation was successful.\r\n   */\r\n   function mintBatch(address payable recipient, uint256 quantity)\r\n      public\r\n      payable\r\n      canMint\r\n      isNotPaused\r\n      notBlocked(recipient) \r\n      returns (bool success)\r\n   {\r\n      require(quantity > 0, \"Collection: must mint at least 1\");\r\n      require(quantity <= maxBatchSize, \"Collection: exceeds batch limit\");\r\n      require(recipient != address(0), \"Collection: Recipient cannot be the zero address\");\r\n\r\n      if(TOKEN_LIMIT - totalMinted < quantity){\r\n         quantity = TOKEN_LIMIT - totalMinted;\r\n      }\r\n\r\n\r\n      uint256 totalFee = mintFee.mul(quantity);\r\n      require(msg.value >= totalFee, \"Collection: Insufficient fees provided\");\r\n\r\n      for (uint256 i = 0; i < quantity; i++) {\r\n         _mint(recipient);\r\n      }\r\n\r\n      // Refund excess ETH if any\r\n      if (msg.value > totalFee) {\r\n         (bool sent, ) = payable(_msgSender()).call{value: msg.value.sub(totalFee)}(\"\");\r\n         require(sent, \"Collection: Refund transfer failed\");\r\n      }\r\n\r\n      return true;\r\n   }\r\n\r\n  /**\r\n   * @dev Mints multiple tokens to the specified recipient in a single transaction, \r\n   *      without requiring payment (free mint), subject to applicable constraints.\r\n   *\r\n   * Requirements:\r\n   * - The contract must not be paused.\r\n   * - Minting must be allowed (per `canMint`).\r\n   * - Caller must have the minter role (`isMinter`).\r\n   * - The `recipient` must not have the blocked role.\r\n   * - `recipient` cannot be the zero address.\r\n   * - `quantity` must not exceed `MAX_BATCH`.\r\n   *\r\n   * Notes:\r\n   * - If the requested `quantity` exceeds the remaining supply, it is adjusted to the available amount.\r\n   *\r\n   * Effects:\r\n   * - Transfers the specified number of minted tokens (adjusted if necessary) to `recipient`.\r\n   *\r\n   * @param recipient The address to receive the minted tokens.\r\n   * @param quantity The number of tokens to mint in this batch.\r\n   * @return success A boolean indicating whether the batch mint operation was successful.\r\n */\r\n   function freeMint(address payable recipient, uint256 quantity)\r\n      public\r\n      canMint\r\n      isNotPaused\r\n      isMinter\r\n      notBlocked(recipient) \r\n      returns (bool success)\r\n   {\r\n      require(quantity > 0, \"Collection: must mint at least 1\");\r\n      require(quantity <= maxBatchSize, \"Collection: exceeds batch limit\");\r\n      require(recipient != address(0), \"Collection: Recipient cannot be the zero address\");\r\n\r\n      if(TOKEN_LIMIT - totalMinted < quantity){\r\n         quantity = TOKEN_LIMIT - totalMinted;\r\n      }\r\n\r\n      for (uint256 i = 0; i < quantity; i++) {\r\n         _mint(recipient);\r\n      }\r\n\r\n      return true;\r\n   }\r\n\r\n }",
  "sourcePath": "D:\\rish rv\\contract\\contracts\\collection-mint\\mint.sol",
  "compiler": {
    "name": "solc",
    "version": "0.8.0+commit.c7dfd78e.Emscripten.clang"
  },
  "schemaVersion": "3.4.10",
  "updatedAt": "2025-09-29T15:51:07.438Z",
  "networkType": "ethereum",
  "devdoc": {
    "kind": "dev",
    "methods": {
      "claimERC20(address,uint256,address)": {
        "details": "Only callable by the contract owner.",
        "params": {
          "to": "The address to transfer tokens to.",
          "token": "The ERC20 token contract address.",
          "value": "The amount of tokens to be transferred."
        }
      },
      "claimERC721(address,uint256,address)": {
        "details": "Only callable by the contract owner.",
        "params": {
          "to": "The address to transfer the NFT to.",
          "token": "The ERC721 token contract address.",
          "tokenId": "The ID of the NFT to be transferred."
        }
      },
      "claimETH(address,uint256)": {
        "details": "Only callable by the contract owner.",
        "params": {
          "to": "The address to transfer ETH to.",
          "value": "The amount of ETH (in wei) to be transferred."
        }
      },
      "freeMint(address,uint256)": {
        "details": "Mints multiple tokens to the specified recipient in a single transaction,       without requiring payment (free mint), subject to applicable constraints. Requirements: - The contract must not be paused. - Minting must be allowed (per `canMint`). - Caller must have the minter role (`isMinter`). - The `recipient` must not have the blocked role. - `recipient` cannot be the zero address. - `quantity` must not exceed `MAX_BATCH`. Notes: - If the requested `quantity` exceeds the remaining supply, it is adjusted to the available amount. Effects: - Transfers the specified number of minted tokens (adjusted if necessary) to `recipient`.",
        "params": {
          "quantity": "The number of tokens to mint in this batch.",
          "recipient": "The address to receive the minted tokens."
        },
        "returns": {
          "success": "A boolean indicating whether the batch mint operation was successful."
        }
      },
      "getMintFee()": {
        "returns": {
          "_0": "Current minting fee."
        }
      },
      "getNftContract()": {
        "details": "Returns the contract address of the current NFT instance."
      },
      "getRoleAdmin(bytes32)": {
        "details": "Returns the admin role that controls `role`. See {grantRole} and {revokeRole}. To change a role's admin, use {_setRoleAdmin}."
      },
      "grantRole(bytes32,address)": {
        "details": "Grants `role` to `account`. If `account` had not been already granted `role`, emits a {RoleGranted} event. Requirements: - the caller must have ``role``'s admin role."
      },
      "hasRole(bytes32,address)": {
        "details": "Returns `true` if `account` has been granted `role`."
      },
      "isPaused()": {
        "details": "Returns true if the contract is paused, and false otherwise."
      },
      "mint(address)": {
        "details": "Mints a single token to the specified recipient in exchange for the required minting fee. Requirements: - The contract must not be paused. - Minting must be allowed (per `canMint`). - The `recipient` must not have the blocked role. - `recipient` cannot be the zero address. - `msg.value` must be at least `mintFee`. Effects: - Transfers the minted token to `recipient`. - Refunds any excess ETH sent above `mintFee` back to the caller.",
        "params": {
          "recipient": "The address to receive the minted token."
        },
        "returns": {
          "success": "A boolean indicating whether the mint operation was successful."
        }
      },
      "mintBatch(address,uint256)": {
        "details": "Mints multiple tokens to the specified recipient in a single transaction,       in exchange for the required batch minting fees. Requirements: - The contract must not be paused. - Minting must be allowed (per `canMint`). - The `recipient` must not have the blocked role. - `recipient` cannot be the zero address. - `quantity` must not exceed `MAX_BATCH`. - `msg.value` must be at least `mintFee * quantity`. Notes: - If the requested `quantity` exceeds the remaining supply, it is adjusted to the available amount. Effects: - Transfers the specified number of minted tokens (adjusted if necessary) to `recipient`. - Refunds any excess ETH sent above the total required fee back to the caller.",
        "params": {
          "quantity": "The number of tokens to mint in this batch.",
          "recipient": "The address to receive the minted tokens."
        },
        "returns": {
          "success": "A boolean indicating whether the batch mint operation was successful."
        }
      },
      "minterOf(uint256)": {
        "details": "Returns the address that minted a given token ID.",
        "params": {
          "tokenId": "The ID of the token."
        },
        "returns": {
          "_0": "The address of the minter."
        }
      },
      "mintersOf(uint256[])": {
        "details": "Returns the addresses that minted a list of token IDs.",
        "params": {
          "tokenIds": "An array of token IDs."
        },
        "returns": {
          "_0": "An array of addresses corresponding to each token's minter."
        }
      },
      "renounceRole(bytes32,address)": {
        "details": "Revokes `role` from the calling account. Roles are often managed via {grantRole} and {revokeRole}: this function's purpose is to provide a mechanism for accounts to lose their privileges if they are compromised (such as when a trusted device is misplaced). If the calling account had been granted `role`, emits a {RoleRevoked} event. Requirements: - the caller must be `account`. - 'role' must not be 'BLOCKED_ROLE'"
      },
      "revokeRole(bytes32,address)": {
        "details": "Revokes `role` from `account`. If `account` had been granted `role`, emits a {RoleRevoked} event. Requirements: - the caller must have ``role``'s admin role."
      },
      "setMintFee(uint256)": {
        "details": "Can only be called by a developer.",
        "params": {
          "newFee": "New minting fee in wei. Must be greater than 0 and different from the current value."
        }
      },
      "setMintStartTime(uint256)": {
        "details": "Can only be called by a developer.",
        "params": {
          "newStartTime": "Unix timestamp when minting should start. Must be in the future."
        }
      },
      "setPause(bool)": {
        "details": "If paused, all functions with `whenNotPaused` will be disabled.",
        "params": {
          "_paused": "The new paused state to set."
        }
      },
      "updateMaxBatchSize(uint256)": {
        "details": "Can only be called by a developer.",
        "params": {
          "_newMaxBatchSize": "New maximum number of tokens per batch."
        }
      },
      "updateNftContract(address)": {
        "details": "Updates the NFT contract address. Can only be called by an account with the Dev role. Requirements: - `nftAddress` cannot be the zero address. - `nftAddress` must be different from the current NFT contract address.",
        "params": {
          "nftAddress": "The new NFT contract address."
        },
        "returns": {
          "_0": "bool Returns true if the update is successful."
        }
      }
    },
    "version": 1
  },
  "userdoc": {
    "kind": "user",
    "methods": {
      "claimERC20(address,uint256,address)": {
        "notice": "Withdraws ERC20 tokens from the contract to a specified address."
      },
      "claimERC721(address,uint256,address)": {
        "notice": "Withdraws an ERC721 NFT from the contract to a specified address."
      },
      "claimETH(address,uint256)": {
        "notice": "Withdraws ETH from the contract to a specified address."
      },
      "getMintFee()": {
        "notice": "Returns the current minting fee in wei."
      },
      "setMintFee(uint256)": {
        "notice": "Updates the minting fee."
      },
      "setMintStartTime(uint256)": {
        "notice": "Updates the mint start time."
      },
      "setPause(bool)": {
        "notice": "Sets the contract's paused state."
      },
      "updateMaxBatchSize(uint256)": {
        "notice": "Updates the maximum mint batch size."
      }
    },
    "version": 1
  }
}